Component: ARM Compiler 5.06 update 6 (build 750) Tool: armlink [4d35ed]

==============================================================================

Section Cross References

    startup_stm32g431xx.o(RESET) refers to startup_stm32g431xx.o(STACK) for __initial_sp
    startup_stm32g431xx.o(RESET) refers to startup_stm32g431xx.o(.text) for Reset_Handler
    startup_stm32g431xx.o(RESET) refers to stm32g4xx_it.o(i.SysTick_Handler) for SysTick_Handler
    startup_stm32g431xx.o(RESET) refers to stm32g4xx_it.o(i.EXTI0_IRQHandler) for EXTI0_IRQHandler
    startup_stm32g431xx.o(RESET) refers to stm32g4xx_it.o(i.EXTI3_IRQHandler) for EXTI3_IRQHandler
    startup_stm32g431xx.o(RESET) refers to stm32g4xx_it.o(i.TIM1_BRK_TIM15_IRQHandler) for TIM1_BRK_TIM15_IRQHandler
    startup_stm32g431xx.o(RESET) refers to stm32g4xx_it.o(i.TIM1_UP_TIM16_IRQHandler) for TIM1_UP_TIM16_IRQHandler
    startup_stm32g431xx.o(RESET) refers to stm32g4xx_it.o(i.USART2_IRQHandler) for USART2_IRQHandler
    startup_stm32g431xx.o(RESET) refers to stm32g4xx_it.o(i.EXTI15_10_IRQHandler) for EXTI15_10_IRQHandler
    startup_stm32g431xx.o(.text) refers to system_stm32g4xx.o(i.SystemInit) for SystemInit
    startup_stm32g431xx.o(.text) refers to entry.o(.ARM.Collect$$$$00000000) for __main
    curtain.o(i.Calibration_init) refers to stm32g4xx_hal.o(i.HAL_Delay) for HAL_Delay
    curtain.o(i.Calibration_init) refers to dc_motor_security.o(i.Security_init) for Security_init
    curtain.o(i.Calibration_init) refers to curtain.o(.bss) for curtain
    curtain.o(i.Calibration_init) refers to dc_motor_driver.o(.bss) for driver
    curtain.o(i.Calibration_loop) refers to dc_motor_stall_lib.o(i.minCheck) for minCheck
    curtain.o(i.Calibration_loop) refers to stm32g4xx_hal.o(i.HAL_Delay) for HAL_Delay
    curtain.o(i.Calibration_loop) refers to dc_motor_security.o(i.Security_init) for Security_init
==============================================================================

Removing Unused input sections from the image.

    Removing startup_stm32g431xx.o(HEAP), (512 bytes).
    Removing curtain.o(.rev16_text), (4 bytes).
    Removing curtain.o(.revsh_text), (4 bytes).
    Removing curtain.o(.rrx_text), (6 bytes).
    Removing main.o(.rev16_text), (4 bytes).
    Removing main.o(.revsh_text), (4 bytes).
    Removing main.o(.rrx_text), (6 bytes).
    Removing gpio.o(.rev16_text), (4 bytes).
    Removing gpio.o(.revsh_text), (4 bytes).
    Removing gpio.o(.rrx_text), (6 bytes).
    Removing adc.o(.rev16_text), (4 bytes).
    Removing adc.o(.revsh_text), (4 bytes).
    Removing adc.o(.rrx_text), (6 bytes).
    Removing adc.o(i.HAL_ADC_MspDeInit), (44 bytes).
    Removing tim.o(.rev16_text), (4 bytes).
    Removing tim.o(.revsh_text), (4 bytes).
    Removing tim.o(.rrx_text), (6 bytes).
    Removing tim.o(i.HAL_TIM_Base_MspDeInit), (48 bytes).
==============================================================================

Image Symbol Table

    Local Symbols

    Symbol Name                              Value     Ov Type        Size  Object(Section)

    ../Drivers/STM32G4xx_HAL_Driver/Src/stm32g4xx_hal.c 0x00000000   Number         0  stm32g4xx_hal.o ABSOLUTE
    ../Drivers/STM32G4xx_HAL_Driver/Src/stm32g4xx_hal_adc.c 0x00000000   Number         0  stm32g4xx_hal_adc.o ABSOLUTE
    ../Drivers/STM32G4xx_HAL_Driver/Src/stm32g4xx_hal_adc_ex.c 0x00000000   Number         0  stm32g4xx_hal_adc_ex.o ABSOLUTE
    ../Drivers/STM32G4xx_HAL_Driver/Src/stm32g4xx_hal_cortex.c 0x00000000   Number         0  stm32g4xx_hal_cortex.o ABSOLUTE
    ../Drivers/STM32G4xx_HAL_Driver/Src/stm32g4xx_hal_dma.c 0x00000000   Number         0  stm32g4xx_hal_dma.o ABSOLUTE
    ../Drivers/STM32G4xx_HAL_Driver/Src/stm32g4xx_hal_dma_ex.c 0x00000000   Number         0  stm32g4xx_hal_dma_ex.o ABSOLUTE
    ../Drivers/STM32G4xx_HAL_Driver/Src/stm32g4xx_hal_exti.c 0x00000000   Number         0  stm32g4xx_hal_exti.o ABSOLUTE
    ../Drivers/STM32G4xx_HAL_Driver/Src/stm32g4xx_hal_flash.c 0x00000000   Number         0  stm32g4xx_hal_flash.o ABSOLUTE
    ../Drivers/STM32G4xx_HAL_Driver/Src/stm32g4xx_hal_flash_ex.c 0x00000000   Number         0  stm32g4xx_hal_flash_ex.o ABSOLUTE
    ../Drivers/STM32G4xx_HAL_Driver/Src/stm32g4xx_hal_flash_ramfunc.c 0x00000000   Number         0  stm32g4xx_hal_flash_ramfunc.o ABSOLUTE
    ../Drivers/STM32G4xx_HAL_Driver/Src/stm32g4xx_hal_gpio.c 0x00000000   Number         0  stm32g4xx_hal_gpio.o ABSOLUTE
    ../Drivers/STM32G4xx_HAL_Driver/Src/stm32g4xx_hal_pwr.c 0x00000000   Number         0  stm32g4xx_hal_pwr.o ABSOLUTE
    ../Drivers/STM32G4xx_HAL_Driver/Src/stm32g4xx_hal_pwr_ex.c 0x00000000   Number         0  stm32g4xx_hal_pwr_ex.o ABSOLUTE
    ../Drivers/STM32G4xx_HAL_Driver/Src/stm32g4xx_hal_rcc.c 0x00000000   Number         0  stm32g4xx_hal_rcc.o ABSOLUTE
    ../Drivers/STM32G4xx_HAL_Driver/Src/stm32g4xx_hal_rcc_ex.c 0x00000000   Number         0  stm32g4xx_hal_rcc_ex.o ABSOLUTE
    ../Drivers/STM32G4xx_HAL_Driver/Src/stm32g4xx_hal_tim.c 0x00000000   Number         0  stm32g4xx_hal_tim.o ABSOLUTE
    ../Drivers/STM32G4xx_HAL_Driver/Src/stm32g4xx_hal_tim_ex.c 0x00000000   Number         0  stm32g4xx_hal_tim_ex.o ABSOLUTE
    ../Drivers/STM32G4xx_HAL_Driver/Src/stm32g4xx_hal_uart.c 0x00000000   Number         0  stm32g4xx_hal_uart.o ABSOLUTE
    ../Drivers/STM32G4xx_HAL_Driver/Src/stm32g4xx_hal_uart_ex.c 0x00000000   Number         0  stm32g4xx_hal_uart_ex.o ABSOLUTE
    ../Drivers/STM32G4xx_HAL_Driver/Src/stm32g4xx_ll_adc.c 0x00000000   Number         0  stm32g4xx_ll_adc.o ABSOLUTE
    ../Src/adc.c                             0x00000000   Number         0  adc.o ABSOLUTE
    ../Src/gpio.c                            0x00000000   Number         0  gpio.o ABSOLUTE
    ../Src/main.c                            0x00000000   Number         0  main.o ABSOLUTE
    ../Src/stm32g4xx_hal_msp.c               0x00000000   Number         0  stm32g4xx_hal_msp.o ABSOLUTE
    ../Src/stm32g4xx_it.c                    0x00000000   Number         0  stm32g4xx_it.o ABSOLUTE
    ../Src/system_stm32g4xx.c                0x00000000   Number         0  system_stm32g4xx.o ABSOLUTE
    ../Src/tim.c                             0x00000000   Number         0  tim.o ABSOLUTE
    ../Src/usart.c                           0x00000000   Number         0  usart.o ABSOLUTE
    ../clib/microlib/division.c              0x00000000   Number         0  uldiv.o ABSOLUTE
    ../clib/microlib/division.c              0x00000000   Number         0  uidiv.o ABSOLUTE
    ../clib/microlib/init/entry.s            0x00000000   Number         0  entry2.o ABSOLUTE
    ../clib/microlib/init/entry.s            0x00000000   Number         0  entry7a.o ABSOLUTE
    ../clib/microlib/init/entry.s            0x00000000   Number         0  entry8a.o ABSOLUTE
    ../clib/microlib/init/entry.s            0x00000000   Number         0  entry8b.o ABSOLUTE
    ../clib/microlib/init/entry.s            0x00000000   Number         0  entry9b.o ABSOLUTE
    ../clib/microlib/init/entry.s            0x00000000   Number         0  entry.o ABSOLUTE
    ../clib/microlib/init/entry.s            0x00000000   Number         0  entry10a.o ABSOLUTE
    ../clib/microlib/init/entry.s            0x00000000   Number         0  entry10b.o ABSOLUTE
    ../clib/microlib/init/entry.s            0x00000000   Number         0  entry9a.o ABSOLUTE
    ../clib/microlib/init/entry.s            0x00000000   Number         0  entry11a.o ABSOLUTE
    ../clib/microlib/init/entry.s            0x00000000   Number         0  entry11b.o ABSOLUTE
    ../clib/microlib/init/entry.s            0x00000000   Number         0  entry5.o ABSOLUTE
    ../clib/microlib/init/entry.s            0x00000000   Number         0  entry7b.o ABSOLUTE
    ../clib/microlib/longlong.c              0x00000000   Number         0  llsshr.o ABSOLUTE
    ../clib/microlib/longlong.c              0x00000000   Number         0  llushr.o ABSOLUTE
    ../clib/microlib/longlong.c              0x00000000   Number         0  llshl.o ABSOLUTE
    ../clib/microlib/printf/printf.c         0x00000000   Number         0  printf7.o ABSOLUTE
    ../clib/microlib/printf/printf.c         0x00000000   Number         0  printfa.o ABSOLUTE
    ../clib/microlib/printf/printf.c         0x00000000   Number         0  printf6.o ABSOLUTE
    ../clib/microlib/printf/printf.c         0x00000000   Number         0  printf4.o ABSOLUTE
    ../clib/microlib/printf/printf.c         0x00000000   Number         0  printf3.o ABSOLUTE
    ../clib/microlib/printf/printf.c         0x00000000   Number         0  printf2.o ABSOLUTE
    ../clib/microlib/printf/printf.c         0x00000000   Number         0  printf1.o ABSOLUTE
    ../clib/microlib/printf/printf.c         0x00000000   Number         0  printf0.o ABSOLUTE
    ../clib/microlib/printf/printf.c         0x00000000   Number         0  printf5.o ABSOLUTE
    ../clib/microlib/printf/printf.c         0x00000000   Number         0  printfb.o ABSOLUTE
    ../clib/microlib/printf/printf.c         0x00000000   Number         0  printf8.o ABSOLUTE
    ../clib/microlib/printf/stubs.s          0x00000000   Number         0  stubs.o ABSOLUTE
    ../clib/microlib/stdio/streams.c         0x00000000   Number         0  stdout.o ABSOLUTE
    ../clib/microlib/string/memcpy.c         0x00000000   Number         0  memcpya.o ABSOLUTE
    ../clib/microlib/string/memcpy.c         0x00000000   Number         0  memcpyb.o ABSOLUTE
    ../clib/microlib/string/memset.c         0x00000000   Number         0  memseta.o ABSOLUTE
    ../clib/microlib/string/strcmp.c         0x00000000   Number         0  strcmp.o ABSOLUTE
    ../clib/microlib/string/strncmp.c        0x00000000   Number         0  strncmp.o ABSOLUTE
    ../clib/microlib/stubs.s                 0x00000000   Number         0  iusefp.o ABSOLUTE
    ../fplib/microlib/fpadd.c                0x00000000   Number         0  dadd.o ABSOLUTE
    ../fplib/microlib/fpdiv.c                0x00000000   Number         0  ddiv.o ABSOLUTE
    ../fplib/microlib/fpepilogue.c           0x00000000   Number         0  depilogue.o ABSOLUTE
    ../fplib/microlib/fpfix.c                0x00000000   Number         0  dfixul.o ABSOLUTE
    ../fplib/microlib/fpmul.c                0x00000000   Number         0  dmul.o ABSOLUTE
    ..\Drivers\STM32G4xx_HAL_Driver\Src\stm32g4xx_hal.c 0x00000000   Number         0  stm32g4xx_hal.o ABSOLUTE
    ..\Drivers\STM32G4xx_HAL_Driver\Src\stm32g4xx_hal_adc.c 0x00000000   Number         0  stm32g4xx_hal_adc.o ABSOLUTE
    ..\Drivers\STM32G4xx_HAL_Driver\Src\stm32g4xx_hal_adc_ex.c 0x00000000   Number         0  stm32g4xx_hal_adc_ex.o ABSOLUTE
    ..\Drivers\STM32G4xx_HAL_Driver\Src\stm32g4xx_hal_cortex.c 0x00000000   Number         0  stm32g4xx_hal_cortex.o ABSOLUTE
    ..\Drivers\STM32G4xx_HAL_Driver\Src\stm32g4xx_hal_dma.c 0x00000000   Number         0  stm32g4xx_hal_dma.o ABSOLUTE
    ..\Drivers\STM32G4xx_HAL_Driver\Src\stm32g4xx_hal_dma_ex.c 0x00000000   Number         0  stm32g4xx_hal_dma_ex.o ABSOLUTE
    ..\Drivers\STM32G4xx_HAL_Driver\Src\stm32g4xx_hal_exti.c 0x00000000   Number         0  stm32g4xx_hal_exti.o ABSOLUTE
    ..\Drivers\STM32G4xx_HAL_Driver\Src\stm32g4xx_hal_flash.c 0x00000000   Number         0  stm32g4xx_hal_flash.o ABSOLUTE
    ..\Drivers\STM32G4xx_HAL_Driver\Src\stm32g4xx_hal_flash_ex.c 0x00000000   Number         0  stm32g4xx_hal_flash_ex.o ABSOLUTE
    ..\Drivers\STM32G4xx_HAL_Driver\Src\stm32g4xx_hal_flash_ramfunc.c 0x00000000   Number         0  stm32g4xx_hal_flash_ramfunc.o ABSOLUTE
    ..\Drivers\STM32G4xx_HAL_Driver\Src\stm32g4xx_hal_gpio.c 0x00000000   Number         0  stm32g4xx_hal_gpio.o ABSOLUTE
    ..\Drivers\STM32G4xx_HAL_Driver\Src\stm32g4xx_hal_pwr.c 0x00000000   Number         0  stm32g4xx_hal_pwr.o ABSOLUTE
    ..\Drivers\STM32G4xx_HAL_Driver\Src\stm32g4xx_hal_pwr_ex.c 0x00000000   Number         0  stm32g4xx_hal_pwr_ex.o ABSOLUTE
    ..\Drivers\STM32G4xx_HAL_Driver\Src\stm32g4xx_hal_rcc.c 0x00000000   Number         0  stm32g4xx_hal_rcc.o ABSOLUTE
    ..\Drivers\STM32G4xx_HAL_Driver\Src\stm32g4xx_hal_rcc_ex.c 0x00000000   Number         0  stm32g4xx_hal_rcc_ex.o ABSOLUTE
    ..\Drivers\STM32G4xx_HAL_Driver\Src\stm32g4xx_hal_tim.c 0x00000000   Number         0  stm32g4xx_hal_tim.o ABSOLUTE
    ..\Drivers\STM32G4xx_HAL_Driver\Src\stm32g4xx_hal_tim_ex.c 0x00000000   Number         0  stm32g4xx_hal_tim_ex.o ABSOLUTE
    ..\Drivers\STM32G4xx_HAL_Driver\Src\stm32g4xx_hal_uart.c 0x00000000   Number         0  stm32g4xx_hal_uart.o ABSOLUTE
    ..\Drivers\STM32G4xx_HAL_Driver\Src\stm32g4xx_hal_uart_ex.c 0x00000000   Number         0  stm32g4xx_hal_uart_ex.o ABSOLUTE
    ..\Src\Curtain.c                         0x00000000   Number         0  curtain.o ABSOLUTE
    ..\Src\Curtain_duya.c                    0x00000000   Number         0  curtain_duya.o ABSOLUTE
    ..\Src\DC_Motor.c                        0x00000000   Number         0  dc_motor.o ABSOLUTE
    ..\Src\DC_Motor_Security.c               0x00000000   Number         0  dc_motor_security.o ABSOLUTE
    ..\Src\DC_Motor_driver.c                 0x00000000   Number         0  dc_motor_driver.o ABSOLUTE
    ..\Src\DC_Motor_hall.c                   0x00000000   Number         0  dc_motor_hall.o ABSOLUTE
    ..\Src\DC_Motor_stall_lib.c              0x00000000   Number         0  dc_motor_stall_lib.o ABSOLUTE
    ..\Src\adc.c                             0x00000000   Number         0  adc.o ABSOLUTE
    ..\Src\bsp_usart.c                       0x00000000   Number         0  bsp_usart.o ABSOLUTE
    ..\Src\gpio.c                            0x00000000   Number         0  gpio.o ABSOLUTE
    ..\Src\main.c                            0x00000000   Number         0  main.o ABSOLUTE
    ..\Src\stm32g4xx_hal_msp.c               0x00000000   Number         0  stm32g4xx_hal_msp.o ABSOLUTE
    ..\Src\stm32g4xx_it.c                    0x00000000   Number         0  stm32g4xx_it.o ABSOLUTE
    ..\Src\system_stm32g4xx.c                0x00000000   Number         0  system_stm32g4xx.o ABSOLUTE
    ..\Src\tim.c                             0x00000000   Number         0  tim.o ABSOLUTE
    ..\Src\usart.c                           0x00000000   Number         0  usart.o ABSOLUTE
    ..\\Src\\Curtain.c                       0x00000000   Number         0  curtain.o ABSOLUTE
    ..\\Src\\Curtain_duya.c                  0x00000000   Number         0  curtain_duya.o ABSOLUTE
    ..\\Src\\DC_Motor.c                      0x00000000   Number         0  dc_motor.o ABSOLUTE
    ..\\Src\\DC_Motor_Security.c             0x00000000   Number         0  dc_motor_security.o ABSOLUTE
    ..\\Src\\DC_Motor_driver.c               0x00000000   Number         0  dc_motor_driver.o ABSOLUTE
    ..\\Src\\DC_Motor_hall.c                 0x00000000   Number         0  dc_motor_hall.o ABSOLUTE
    ..\\Src\\DC_Motor_stall_lib.c            0x00000000   Number         0  dc_motor_stall_lib.o ABSOLUTE
    ..\\Src\\bsp_usart.c                     0x00000000   Number         0  bsp_usart.o ABSOLUTE
    cdrcmple.s                               0x00000000   Number         0  cdrcmple.o ABSOLUTE
    dc.s                                     0x00000000   Number         0  dc.o ABSOLUTE
    handlers.s                               0x00000000   Number         0  handlers.o ABSOLUTE
    init.s                                   0x00000000   Number         0  init.o ABSOLUTE
    startup_stm32g431xx.s                    0x00000000   Number         0  startup_stm32g431xx.o ABSOLUTE
    RESET                                    0x08000000   Section      472  startup_stm32g431xx.o(RESET)
    .ARM.Collect$$$$00000000                 0x080001d8   Section        0  entry.o(.ARM.Collect$$$$00000000)
    .ARM.Collect$$$$00000001                 0x080001d8   Section        4  entry2.o(.ARM.Collect$$$$00000001)
    .ARM.Collect$$$$00000004                 0x080001dc   Section        4  entry5.o(.ARM.Collect$$$$00000004)
    .ARM.Collect$$$$00000008                 0x080001e0   Section        0  entry7b.o(.ARM.Collect$$$$00000008)
    .ARM.Collect$$$$0000000A                 0x080001e0   Section        0  entry8b.o(.ARM.Collect$$$$0000000A)
    .ARM.Collect$$$$0000000B                 0x080001e0   Section        8  entry9a.o(.ARM.Collect$$$$0000000B)
    .ARM.Collect$$$$0000000D                 0x080001e8   Section        0  entry10a.o(.ARM.Collect$$$$0000000D)
    .ARM.Collect$$$$0000000F                 0x080001e8   Section        0  entry11a.o(.ARM.Collect$$$$0000000F)
    .ARM.Collect$$$$00002712                 0x080001e8   Section        4  entry2.o(.ARM.Collect$$$$00002712)
    __lit__00000000                          0x080001e8   Data           4  entry2.o(.ARM.Collect$$$$00002712)
    .text                                    0x080001ec   Section       36  startup_stm32g431xx.o(.text)
    $v0                                      0x080001ec   Number         0  startup_stm32g431xx.o(.text)
    .text                                    0x08000210   Section        0  uldiv.o(.text)
    .text                                    0x08000272   Section        0  memcpya.o(.text)
    .text                                    0x08000296   Section        0  memseta.o(.text)
    .text                                    0x080002ba   Section        0  strcmp.o(.text)
    .text                                    0x080002d6   Section        0  strncmp.o(.text)
    .text                                    0x080002f4   Section        0  uidiv.o(.text)
    .text                                    0x08000320   Section        0  llshl.o(.text)
    .text                                    0x0800033e   Section        0  llushr.o(.text)
    .text                                    0x08000360   Section       36  init.o(.text)
    i.ADC_ConversionStop                     0x08000384   Section        0  stm32g4xx_hal_adc.o(i.ADC_ConversionStop)
    i.ADC_Disable                            0x080004a0   Section        0  stm32g4xx_hal_adc.o(i.ADC_Disable)
    i.ADC_Enable                             0x08000534   Section        0  stm32g4xx_hal_adc.o(i.ADC_Enable)
    i.Calibration_init                       0x080005b8   Section        0  curtain.o(i.Calibration_init)
    i.Calibration_loop                       0x080005e8   Section        0  curtain.o(i.Calibration_loop)
    i.CurrentCheck_loop                      0x0800073c   Section        0  dc_motor_security.o(i.CurrentCheck_loop)
    i.Curtain_Position_set                   0x08000750   Section        0  curtain.o(i.Curtain_Position_set)
    i.Curtain_init                           0x08000830   Section        0  curtain.o(i.Curtain_init)
    i.Curtain_loop                           0x08000860   Section        0  curtain.o(i.Curtain_loop)
    i.Curtain_mode_set                       0x080008bc   Section        0  curtain.o(i.Curtain_mode_set)
    i.DCMorot_SetSpeed                       0x08000920   Section        0  dc_motor_driver.o(i.DCMorot_SetSpeed)
    i.Dateprocess                            0x080009fc   Section        0  bsp_usart.o(i.Dateprocess)
    i.Driver_init                            0x08000a3c   Section        0  dc_motor_driver.o(i.Driver_init)
    i.EXTI0_IRQHandler                       0x08000a5c   Section        0  stm32g4xx_it.o(i.EXTI0_IRQHandler)
    i.EXTI15_10_IRQHandler                   0x08000a66   Section        0  stm32g4xx_it.o(i.EXTI15_10_IRQHandler)
    i.EXTI3_IRQHandler                       0x08000a72   Section        0  stm32g4xx_it.o(i.EXTI3_IRQHandler)
    i.Error_Handler                          0x08000a7c   Section        0  main.o(i.Error_Handler)
    i.GetCurrent                             0x08000a80   Section        0  dc_motor_security.o(i.GetCurrent)
    GetCurrent                               0x08000a81   Thumb Code    60  dc_motor_security.o(i.GetCurrent)
    i.GetCurrent_init                        0x08000ac4   Section        0  dc_motor_security.o(i.GetCurrent_init)
    GetCurrent_init                          0x08000ac5   Thumb Code    60  dc_motor_security.o(i.GetCurrent_init)
    i.GetSysTime                             0x08000b08   Section        0  dc_motor_hall.o(i.GetSysTime)
    i.HAL_ADCEx_InjectedConfigChannel        0x08000b10   Section        0  stm32g4xx_hal_adc_ex.o(i.HAL_ADCEx_InjectedConfigChannel)
    i.HAL_ADCEx_InjectedGetValue             0x0800113c   Section        0  stm32g4xx_hal_adc_ex.o(i.HAL_ADCEx_InjectedGetValue)
    i.HAL_ADCEx_InjectedStart                0x0800117c   Section        0  stm32g4xx_hal_adc_ex.o(i.HAL_ADCEx_InjectedStart)
    i.HAL_ADCEx_InjectedStop                 0x08001284   Section        0  stm32g4xx_hal_adc_ex.o(i.HAL_ADCEx_InjectedStop)
    i.HAL_ADC_ConfigChannel                  0x080012e0   Section        0  stm32g4xx_hal_adc.o(i.HAL_ADC_ConfigChannel)
    i.HAL_ADC_Init                           0x080017e8   Section        0  stm32g4xx_hal_adc.o(i.HAL_ADC_Init)
    i.HAL_ADC_MspInit                        0x08001a50   Section        0  adc.o(i.HAL_ADC_MspInit)
    i.HAL_ADC_PollForConversion              0x08001ac0   Section        0  stm32g4xx_hal_adc.o(i.HAL_ADC_PollForConversion)
    i.HAL_DMA_Abort                          0x08001bf8   Section        0  stm32g4xx_hal_dma.o(i.HAL_DMA_Abort)
    i.HAL_DMA_Abort_IT                       0x08001c6e   Section        0  stm32g4xx_hal_dma.o(i.HAL_DMA_Abort_IT)
    i.HAL_Delay                              0x08001d04   Section        0  stm32g4xx_hal.o(i.HAL_Delay)
    i.HAL_GPIO_EXTI_Callback                 0x08001d2c   Section        0  gpio.o(i.HAL_GPIO_EXTI_Callback)
    i.HAL_GPIO_EXTI_IRQHandler               0x08001d68   Section        0  stm32g4xx_hal_gpio.o(i.HAL_GPIO_EXTI_IRQHandler)
    i.HAL_GPIO_Init                          0x08001d84   Section        0  stm32g4xx_hal_gpio.o(i.HAL_GPIO_Init)
    i.HAL_GPIO_ReadPin                       0x08001f5c   Section        0  stm32g4xx_hal_gpio.o(i.HAL_GPIO_ReadPin)
    i.HAL_GPIO_WritePin                      0x08001f6c   Section        0  stm32g4xx_hal_gpio.o(i.HAL_GPIO_WritePin)
    i.HAL_GetTick                            0x08001f78   Section        0  stm32g4xx_hal.o(i.HAL_GetTick)
    i.HAL_IncTick                            0x08001f84   Section        0  stm32g4xx_hal.o(i.HAL_IncTick)
    i.HAL_Init                               0x08001f9c   Section        0  stm32g4xx_hal.o(i.HAL_Init)
    i.HAL_InitTick                           0x08001fbc   Section        0  stm32g4xx_hal.o(i.HAL_InitTick)
    i.HAL_MspInit                            0x08002014   Section        0  stm32g4xx_hal_msp.o(i.HAL_MspInit)
    i.HAL_NVIC_EnableIRQ                     0x08002058   Section        0  stm32g4xx_hal_cortex.o(i.HAL_NVIC_EnableIRQ)
    i.HAL_NVIC_SetPriority                   0x08002080   Section        0  stm32g4xx_hal_cortex.o(i.HAL_NVIC_SetPriority)
    i.HAL_NVIC_SetPriorityGrouping           0x080020fc   Section        0  stm32g4xx_hal_cortex.o(i.HAL_NVIC_SetPriorityGrouping)
    i.HAL_PWREx_ControlVoltageScaling        0x08002124   Section        0  stm32g4xx_hal_pwr_ex.o(i.HAL_PWREx_ControlVoltageScaling)
    i.HAL_PWREx_DisableUCPDDeadBattery       0x0800223c   Section        0  stm32g4xx_hal_pwr_ex.o(i.HAL_PWREx_DisableUCPDDeadBattery)
    i.HAL_RCCEx_PeriphCLKConfig              0x08002250   Section        0  stm32g4xx_hal_rcc_ex.o(i.HAL_RCCEx_PeriphCLKConfig)
    i.HAL_RCC_ClockConfig                    0x080025c0   Section        0  stm32g4xx_hal_rcc.o(i.HAL_RCC_ClockConfig)
    i.HAL_RCC_EnableCSS                      0x080027e4   Section        0  stm32g4xx_hal_rcc.o(i.HAL_RCC_EnableCSS)
    i.HAL_RCC_GetHCLKFreq                    0x080027f8   Section        0  stm32g4xx_hal_rcc.o(i.HAL_RCC_GetHCLKFreq)
    i.HAL_RCC_GetPCLK1Freq                   0x08002804   Section        0  stm32g4xx_hal_rcc.o(i.HAL_RCC_GetPCLK1Freq)
    i.HAL_RCC_GetPCLK2Freq                   0x08002828   Section        0  stm32g4xx_hal_rcc.o(i.HAL_RCC_GetPCLK2Freq)
    i.HAL_RCC_GetSysClockFreq                0x0800284c   Section        0  stm32g4xx_hal_rcc.o(i.HAL_RCC_GetSysClockFreq)
    i.HAL_RCC_OscConfig                      0x080028e4   Section        0  stm32g4xx_hal_rcc.o(i.HAL_RCC_OscConfig)
    i.HAL_SYSTICK_Config                     0x08002e4c   Section        0  stm32g4xx_hal_cortex.o(i.HAL_SYSTICK_Config)
    i.HAL_TIMEx_Break2Callback               0x08002e80   Section        0  stm32g4xx_hal_tim_ex.o(i.HAL_TIMEx_Break2Callback)
    i.HAL_TIMEx_BreakCallback                0x08002e82   Section        0  stm32g4xx_hal_tim_ex.o(i.HAL_TIMEx_BreakCallback)
    i.HAL_TIMEx_CommutCallback               0x08002e84   Section        0  stm32g4xx_hal_tim_ex.o(i.HAL_TIMEx_CommutCallback)
    i.HAL_TIMEx_ConfigBreakDeadTime          0x08002e88   Section        0  stm32g4xx_hal_tim_ex.o(i.HAL_TIMEx_ConfigBreakDeadTime)
    i.HAL_TIMEx_DirectionChangeCallback      0x08002f70   Section        0  stm32g4xx_hal_tim_ex.o(i.HAL_TIMEx_DirectionChangeCallback)
    i.HAL_TIMEx_EncoderIndexCallback         0x08002f72   Section        0  stm32g4xx_hal_tim_ex.o(i.HAL_TIMEx_EncoderIndexCallback)
    i.HAL_TIMEx_IndexErrorCallback           0x08002f74   Section        0  stm32g4xx_hal_tim_ex.o(i.HAL_TIMEx_IndexErrorCallback)
    i.HAL_TIMEx_MasterConfigSynchronization  0x08002f78   Section        0  stm32g4xx_hal_tim_ex.o(i.HAL_TIMEx_MasterConfigSynchronization)
    i.HAL_TIMEx_TransitionErrorCallback      0x08003030   Section        0  stm32g4xx_hal_tim_ex.o(i.HAL_TIMEx_TransitionErrorCallback)
    i.HAL_TIM_Base_Init                      0x08003032   Section        0  stm32g4xx_hal_tim.o(i.HAL_TIM_Base_Init)
    i.HAL_TIM_Base_MspInit                   0x080030a0   Section        0  tim.o(i.HAL_TIM_Base_MspInit)
    i.HAL_TIM_ConfigClockSource              0x080030f4   Section        0  stm32g4xx_hal_tim.o(i.HAL_TIM_ConfigClockSource)
    i.HAL_TIM_IC_CaptureCallback             0x08003224   Section        0  stm32g4xx_hal_tim.o(i.HAL_TIM_IC_CaptureCallback)
    i.HAL_TIM_IRQHandler                     0x08003226   Section        0  stm32g4xx_hal_tim.o(i.HAL_TIM_IRQHandler)
    i.HAL_TIM_MspPostInit                    0x08003468   Section        0  tim.o(i.HAL_TIM_MspPostInit)
    i.HAL_TIM_OC_DelayElapsedCallback        0x080034c0   Section        0  stm32g4xx_hal_tim.o(i.HAL_TIM_OC_DelayElapsedCallback)
    i.HAL_TIM_PWM_ConfigChannel              0x080034c2   Section        0  stm32g4xx_hal_tim.o(i.HAL_TIM_PWM_ConfigChannel)
    i.HAL_TIM_PWM_Init                       0x0800362a   Section        0  stm32g4xx_hal_tim.o(i.HAL_TIM_PWM_Init)
    i.HAL_TIM_PWM_MspInit                    0x08003698   Section        0  stm32g4xx_hal_tim.o(i.HAL_TIM_PWM_MspInit)
    i.HAL_TIM_PWM_PulseFinishedCallback      0x0800369a   Section        0  stm32g4xx_hal_tim.o(i.HAL_TIM_PWM_PulseFinishedCallback)
    i.HAL_TIM_PWM_Start                      0x0800369c   Section        0  stm32g4xx_hal_tim.o(i.HAL_TIM_PWM_Start)
    i.HAL_TIM_PWM_Stop                       0x080037e8   Section        0  stm32g4xx_hal_tim.o(i.HAL_TIM_PWM_Stop)
    i.HAL_TIM_PeriodElapsedCallback          0x080038cc   Section        0  stm32g4xx_hal_tim.o(i.HAL_TIM_PeriodElapsedCallback)
    i.HAL_TIM_TriggerCallback                0x080038ce   Section        0  stm32g4xx_hal_tim.o(i.HAL_TIM_TriggerCallback)
    i.HAL_UARTEx_DisableFifoMode             0x080038d0   Section        0  stm32g4xx_hal_uart_ex.o(i.HAL_UARTEx_DisableFifoMode)
    i.HAL_UARTEx_ReceiveToIdle_IT            0x0800391e   Section        0  stm32g4xx_hal_uart_ex.o(i.HAL_UARTEx_ReceiveToIdle_IT)
    i.HAL_UARTEx_RxEventCallback             0x08003984   Section        0  bsp_usart.o(i.HAL_UARTEx_RxEventCallback)
    i.HAL_UARTEx_RxFifoFullCallback          0x080039f8   Section        0  stm32g4xx_hal_uart_ex.o(i.HAL_UARTEx_RxFifoFullCallback)
    i.HAL_UARTEx_SetRxFifoThreshold          0x080039fa   Section        0  stm32g4xx_hal_uart_ex.o(i.HAL_UARTEx_SetRxFifoThreshold)
    i.HAL_UARTEx_SetTxFifoThreshold          0x08003a58   Section        0  stm32g4xx_hal_uart_ex.o(i.HAL_UARTEx_SetTxFifoThreshold)
    i.HAL_UARTEx_TxFifoEmptyCallback         0x08003ab6   Section        0  stm32g4xx_hal_uart_ex.o(i.HAL_UARTEx_TxFifoEmptyCallback)
    i.HAL_UARTEx_WakeupCallback              0x08003ab8   Section        0  stm32g4xx_hal_uart_ex.o(i.HAL_UARTEx_WakeupCallback)
    i.HAL_UART_ErrorCallback                 0x08003aba   Section        0  stm32g4xx_hal_uart.o(i.HAL_UART_ErrorCallback)
    i.HAL_UART_IRQHandler                    0x08003abc   Section        0  stm32g4xx_hal_uart.o(i.HAL_UART_IRQHandler)
    i.HAL_UART_Init                          0x08003dc4   Section        0  stm32g4xx_hal_uart.o(i.HAL_UART_Init)
    i.HAL_UART_MspInit                       0x08003e3c   Section        0  usart.o(i.HAL_UART_MspInit)
    i.HAL_UART_RxCpltCallback                0x08003ec0   Section        0  stm32g4xx_hal_uart.o(i.HAL_UART_RxCpltCallback)
    i.HAL_UART_Transmit                      0x08003ec2   Section        0  stm32g4xx_hal_uart.o(i.HAL_UART_Transmit)
    i.HAL_UART_TxCpltCallback                0x08003f98   Section        0  stm32g4xx_hal_uart.o(i.HAL_UART_TxCpltCallback)
    i.Hall_init                              0x08003f9c   Section        0  dc_motor_hall.o(i.Hall_init)
    i.InterruptsProcess                      0x08003fd4   Section        0  dc_motor_hall.o(i.InterruptsProcess)
    i.LL_ADC_Enable                          0x08004044   Section        0  stm32g4xx_hal_adc.o(i.LL_ADC_Enable)
    LL_ADC_Enable                            0x08004045   Thumb Code    12  stm32g4xx_hal_adc.o(i.LL_ADC_Enable)
    i.LL_ADC_GetMultimode                    0x08004054   Section        0  stm32g4xx_hal_adc.o(i.LL_ADC_GetMultimode)
    LL_ADC_GetMultimode                      0x08004055   Thumb Code    10  stm32g4xx_hal_adc.o(i.LL_ADC_GetMultimode)
    i.LL_ADC_GetOffsetChannel                0x0800405e   Section        0  stm32g4xx_hal_adc.o(i.LL_ADC_GetOffsetChannel)
    LL_ADC_GetOffsetChannel                  0x0800405f   Thumb Code    18  stm32g4xx_hal_adc.o(i.LL_ADC_GetOffsetChannel)
    i.LL_ADC_GetOffsetChannel                0x08004070   Section        0  stm32g4xx_hal_adc_ex.o(i.LL_ADC_GetOffsetChannel)
    LL_ADC_GetOffsetChannel                  0x08004071   Thumb Code    18  stm32g4xx_hal_adc_ex.o(i.LL_ADC_GetOffsetChannel)
    i.LL_ADC_INJ_GetTrigAuto                 0x08004082   Section        0  stm32g4xx_hal_adc_ex.o(i.LL_ADC_INJ_GetTrigAuto)
    LL_ADC_INJ_GetTrigAuto                   0x08004083   Thumb Code    10  stm32g4xx_hal_adc_ex.o(i.LL_ADC_INJ_GetTrigAuto)
    i.LL_ADC_INJ_IsConversionOngoing         0x0800408c   Section        0  stm32g4xx_hal_adc.o(i.LL_ADC_INJ_IsConversionOngoing)
    LL_ADC_INJ_IsConversionOngoing           0x0800408d   Thumb Code    10  stm32g4xx_hal_adc.o(i.LL_ADC_INJ_IsConversionOngoing)
    i.LL_ADC_INJ_IsConversionOngoing         0x08004096   Section        0  stm32g4xx_hal_adc_ex.o(i.LL_ADC_INJ_IsConversionOngoing)
    LL_ADC_INJ_IsConversionOngoing           0x08004097   Thumb Code    10  stm32g4xx_hal_adc_ex.o(i.LL_ADC_INJ_IsConversionOngoing)
    i.LL_ADC_INJ_StartConversion             0x080040a0   Section        0  stm32g4xx_hal_adc_ex.o(i.LL_ADC_INJ_StartConversion)
    LL_ADC_INJ_StartConversion               0x080040a1   Thumb Code    14  stm32g4xx_hal_adc_ex.o(i.LL_ADC_INJ_StartConversion)
    i.LL_ADC_IsDisableOngoing                0x080040b4   Section        0  stm32g4xx_hal_adc.o(i.LL_ADC_IsDisableOngoing)
    LL_ADC_IsDisableOngoing                  0x080040b5   Thumb Code    10  stm32g4xx_hal_adc.o(i.LL_ADC_IsDisableOngoing)
    i.LL_ADC_IsEnabled                       0x080040be   Section        0  stm32g4xx_hal_adc.o(i.LL_ADC_IsEnabled)
    LL_ADC_IsEnabled                         0x080040bf   Thumb Code    10  stm32g4xx_hal_adc.o(i.LL_ADC_IsEnabled)
    i.LL_ADC_IsEnabled                       0x080040c8   Section        0  stm32g4xx_hal_adc_ex.o(i.LL_ADC_IsEnabled)
    LL_ADC_IsEnabled                         0x080040c9   Thumb Code    10  stm32g4xx_hal_adc_ex.o(i.LL_ADC_IsEnabled)
    i.LL_ADC_IsInternalRegulatorEnabled      0x080040d2   Section        0  stm32g4xx_hal_adc.o(i.LL_ADC_IsInternalRegulatorEnabled)
    LL_ADC_IsInternalRegulatorEnabled        0x080040d3   Thumb Code    10  stm32g4xx_hal_adc.o(i.LL_ADC_IsInternalRegulatorEnabled)
    i.LL_ADC_REG_IsConversionOngoing         0x080040dc   Section        0  stm32g4xx_hal_adc.o(i.LL_ADC_REG_IsConversionOngoing)
    LL_ADC_REG_IsConversionOngoing           0x080040dd   Thumb Code    10  stm32g4xx_hal_adc.o(i.LL_ADC_REG_IsConversionOngoing)
    i.LL_ADC_REG_IsConversionOngoing         0x080040e6   Section        0  stm32g4xx_hal_adc_ex.o(i.LL_ADC_REG_IsConversionOngoing)
    LL_ADC_REG_IsConversionOngoing           0x080040e7   Thumb Code    10  stm32g4xx_hal_adc_ex.o(i.LL_ADC_REG_IsConversionOngoing)
    i.LL_ADC_REG_IsTriggerSourceSWStart      0x080040f0   Section        0  stm32g4xx_hal_adc.o(i.LL_ADC_REG_IsTriggerSourceSWStart)
    LL_ADC_REG_IsTriggerSourceSWStart        0x080040f1   Thumb Code    18  stm32g4xx_hal_adc.o(i.LL_ADC_REG_IsTriggerSourceSWStart)
    i.LL_ADC_SetChannelSamplingTime          0x08004102   Section        0  stm32g4xx_hal_adc.o(i.LL_ADC_SetChannelSamplingTime)
    LL_ADC_SetChannelSamplingTime            0x08004103   Thumb Code    40  stm32g4xx_hal_adc.o(i.LL_ADC_SetChannelSamplingTime)
    i.LL_ADC_SetChannelSamplingTime          0x0800412a   Section        0  stm32g4xx_hal_adc_ex.o(i.LL_ADC_SetChannelSamplingTime)
    LL_ADC_SetChannelSamplingTime            0x0800412b   Thumb Code    40  stm32g4xx_hal_adc_ex.o(i.LL_ADC_SetChannelSamplingTime)
    i.LL_ADC_SetCommonPathInternalCh         0x08004152   Section        0  stm32g4xx_hal_adc.o(i.LL_ADC_SetCommonPathInternalCh)
    LL_ADC_SetCommonPathInternalCh           0x08004153   Thumb Code    12  stm32g4xx_hal_adc.o(i.LL_ADC_SetCommonPathInternalCh)
    i.LL_ADC_SetCommonPathInternalCh         0x0800415e   Section        0  stm32g4xx_hal_adc_ex.o(i.LL_ADC_SetCommonPathInternalCh)
    LL_ADC_SetCommonPathInternalCh           0x0800415f   Thumb Code    12  stm32g4xx_hal_adc_ex.o(i.LL_ADC_SetCommonPathInternalCh)
    i.LL_ADC_SetOffsetState                  0x0800416a   Section        0  stm32g4xx_hal_adc.o(i.LL_ADC_SetOffsetState)
    LL_ADC_SetOffsetState                    0x0800416b   Thumb Code    22  stm32g4xx_hal_adc.o(i.LL_ADC_SetOffsetState)
    i.LL_ADC_SetOffsetState                  0x08004180   Section        0  stm32g4xx_hal_adc_ex.o(i.LL_ADC_SetOffsetState)
    LL_ADC_SetOffsetState                    0x08004181   Thumb Code    22  stm32g4xx_hal_adc_ex.o(i.LL_ADC_SetOffsetState)
    i.LL_ADC_SetSamplingTimeCommonConfig     0x08004196   Section        0  stm32g4xx_hal_adc.o(i.LL_ADC_SetSamplingTimeCommonConfig)
    LL_ADC_SetSamplingTimeCommonConfig       0x08004197   Thumb Code    12  stm32g4xx_hal_adc.o(i.LL_ADC_SetSamplingTimeCommonConfig)
    i.LL_ADC_SetSamplingTimeCommonConfig     0x080041a2   Section        0  stm32g4xx_hal_adc_ex.o(i.LL_ADC_SetSamplingTimeCommonConfig)
    LL_ADC_SetSamplingTimeCommonConfig       0x080041a3   Thumb Code    12  stm32g4xx_hal_adc_ex.o(i.LL_ADC_SetSamplingTimeCommonConfig)
    i.MX_ADC2_Init                           0x080041b0   Section        0  adc.o(i.MX_ADC2_Init)
    i.MX_GPIO_Init                           0x08004280   Section        0  gpio.o(i.MX_GPIO_Init)
    i.MX_TIM1_Init                           0x080043b4   Section        0  tim.o(i.MX_TIM1_Init)
    i.MX_USART2_UART_Init                    0x0800449c   Section        0  usart.o(i.MX_USART2_UART_Init)
    i.PositionDetection                      0x08004508   Section        0  curtain.o(i.PositionDetection)
    i.RCC_GetSysClockFreqFromPLLSource       0x080045d4   Section        0  stm32g4xx_hal_rcc.o(i.RCC_GetSysClockFreqFromPLLSource)
    RCC_GetSysClockFreqFromPLLSource         0x080045d5   Thumb Code    90  stm32g4xx_hal_rcc.o(i.RCC_GetSysClockFreqFromPLLSource)
    i.Security_init                          0x0800463c   Section        0  dc_motor_security.o(i.Security_init)
    i.StallCheck_loop                        0x08004670   Section        0  dc_motor_security.o(i.StallCheck_loop)
    i.Standby_loop                           0x080046c8   Section        0  curtain.o(i.Standby_loop)
    i.StartUart                              0x080047b0   Section        0  bsp_usart.o(i.StartUart)
    i.SysTick_Handler                        0x080047c8   Section        0  stm32g4xx_it.o(i.SysTick_Handler)
    i.SystemClock_Config                     0x080047d0   Section        0  main.o(i.SystemClock_Config)
    i.SystemInit                             0x08004870   Section        0  system_stm32g4xx.o(i.SystemInit)
    i.TIM1_BRK_TIM15_IRQHandler              0x08004884   Section        0  stm32g4xx_it.o(i.TIM1_BRK_TIM15_IRQHandler)
    i.TIM1_UP_TIM16_IRQHandler               0x08004894   Section        0  stm32g4xx_it.o(i.TIM1_UP_TIM16_IRQHandler)
    i.TIM_Base_SetConfig                     0x080048a4   Section        0  stm32g4xx_hal_tim.o(i.TIM_Base_SetConfig)
    i.TIM_CCxChannelCmd                      0x08004960   Section        0  stm32g4xx_hal_tim.o(i.TIM_CCxChannelCmd)
    i.TIM_ETR_SetConfig                      0x08004982   Section        0  stm32g4xx_hal_tim.o(i.TIM_ETR_SetConfig)
    i.TIM_ITRx_SetConfig                     0x08004998   Section        0  stm32g4xx_hal_tim.o(i.TIM_ITRx_SetConfig)
    TIM_ITRx_SetConfig                       0x08004999   Thumb Code    18  stm32g4xx_hal_tim.o(i.TIM_ITRx_SetConfig)
    i.TIM_OC1_SetConfig                      0x080049b0   Section        0  stm32g4xx_hal_tim.o(i.TIM_OC1_SetConfig)
    TIM_OC1_SetConfig                        0x080049b1   Thumb Code   146  stm32g4xx_hal_tim.o(i.TIM_OC1_SetConfig)
    i.TIM_OC2_SetConfig                      0x08004a5c   Section        0  stm32g4xx_hal_tim.o(i.TIM_OC2_SetConfig)
    i.TIM_OC3_SetConfig                      0x08004b10   Section        0  stm32g4xx_hal_tim.o(i.TIM_OC3_SetConfig)
    TIM_OC3_SetConfig                        0x08004b11   Thumb Code   154  stm32g4xx_hal_tim.o(i.TIM_OC3_SetConfig)
    i.TIM_OC4_SetConfig                      0x08004bc4   Section        0  stm32g4xx_hal_tim.o(i.TIM_OC4_SetConfig)
    TIM_OC4_SetConfig                        0x08004bc5   Thumb Code   156  stm32g4xx_hal_tim.o(i.TIM_OC4_SetConfig)
    i.TIM_OC5_SetConfig                      0x08004c78   Section        0  stm32g4xx_hal_tim.o(i.TIM_OC5_SetConfig)
    TIM_OC5_SetConfig                        0x08004c79   Thumb Code    86  stm32g4xx_hal_tim.o(i.TIM_OC5_SetConfig)
    i.TIM_OC6_SetConfig                      0x08004ce8   Section        0  stm32g4xx_hal_tim.o(i.TIM_OC6_SetConfig)
    TIM_OC6_SetConfig                        0x08004ce9   Thumb Code    88  stm32g4xx_hal_tim.o(i.TIM_OC6_SetConfig)
    i.TIM_TI1_ConfigInputStage               0x08004d58   Section        0  stm32g4xx_hal_tim.o(i.TIM_TI1_ConfigInputStage)
    TIM_TI1_ConfigInputStage                 0x08004d59   Thumb Code    38  stm32g4xx_hal_tim.o(i.TIM_TI1_ConfigInputStage)
    i.TIM_TI2_ConfigInputStage               0x08004d7e   Section        0  stm32g4xx_hal_tim.o(i.TIM_TI2_ConfigInputStage)
    TIM_TI2_ConfigInputStage                 0x08004d7f   Thumb Code    40  stm32g4xx_hal_tim.o(i.TIM_TI2_ConfigInputStage)
    i.UARTEx_SetNbDataToProcess              0x08004da8   Section        0  stm32g4xx_hal_uart_ex.o(i.UARTEx_SetNbDataToProcess)
    UARTEx_SetNbDataToProcess                0x08004da9   Thumb Code    78  stm32g4xx_hal_uart_ex.o(i.UARTEx_SetNbDataToProcess)
    i.UART_AdvFeatureConfig                  0x08004e00   Section        0  stm32g4xx_hal_uart.o(i.UART_AdvFeatureConfig)
    i.UART_CheckIdleState                    0x08004ef8   Section        0  stm32g4xx_hal_uart.o(i.UART_CheckIdleState)
    i.UART_DMAAbortOnError                   0x08004f6e   Section        0  stm32g4xx_hal_uart.o(i.UART_DMAAbortOnError)
    UART_DMAAbortOnError                     0x08004f6f   Thumb Code    24  stm32g4xx_hal_uart.o(i.UART_DMAAbortOnError)
    i.UART_EndRxTransfer                     0x08004f88   Section        0  stm32g4xx_hal_uart.o(i.UART_EndRxTransfer)
    UART_EndRxTransfer                       0x08004f89   Thumb Code    56  stm32g4xx_hal_uart.o(i.UART_EndRxTransfer)
    i.UART_EndTransmit_IT                    0x08004fc4   Section        0  stm32g4xx_hal_uart.o(i.UART_EndTransmit_IT)
    UART_EndTransmit_IT                      0x08004fc5   Thumb Code    34  stm32g4xx_hal_uart.o(i.UART_EndTransmit_IT)
    i.UART_RxISR_16BIT                       0x08004fe6   Section        0  stm32g4xx_hal_uart.o(i.UART_RxISR_16BIT)
    UART_RxISR_16BIT                         0x08004fe7   Thumb Code   146  stm32g4xx_hal_uart.o(i.UART_RxISR_16BIT)
    i.UART_RxISR_16BIT_FIFOEN                0x08005078   Section        0  stm32g4xx_hal_uart.o(i.UART_RxISR_16BIT_FIFOEN)
    UART_RxISR_16BIT_FIFOEN                  0x08005079   Thumb Code   348  stm32g4xx_hal_uart.o(i.UART_RxISR_16BIT_FIFOEN)
    i.UART_RxISR_8BIT                        0x080051dc   Section        0  stm32g4xx_hal_uart.o(i.UART_RxISR_8BIT)
    UART_RxISR_8BIT                          0x080051dd   Thumb Code   142  stm32g4xx_hal_uart.o(i.UART_RxISR_8BIT)
    i.UART_RxISR_8BIT_FIFOEN                 0x0800526c   Section        0  stm32g4xx_hal_uart.o(i.UART_RxISR_8BIT_FIFOEN)
    UART_RxISR_8BIT_FIFOEN                   0x0800526d   Thumb Code   346  stm32g4xx_hal_uart.o(i.UART_RxISR_8BIT_FIFOEN)
    i.UART_SetConfig                         0x080053d0   Section        0  stm32g4xx_hal_uart.o(i.UART_SetConfig)
    i.UART_Start_Receive_IT                  0x0800575c   Section        0  stm32g4xx_hal_uart.o(i.UART_Start_Receive_IT)
    i.UART_WaitOnFlagUntilTimeout            0x0800586c   Section        0  stm32g4xx_hal_uart.o(i.UART_WaitOnFlagUntilTimeout)
    i.USART2_IRQHandler                      0x0800592c   Section        0  stm32g4xx_it.o(i.USART2_IRQHandler)
    i.__0printf$1                            0x0800593c   Section        0  printf1.o(i.__0printf$1)
    i.__NVIC_GetPriorityGrouping             0x0800595c   Section        0  stm32g4xx_hal_cortex.o(i.__NVIC_GetPriorityGrouping)
    __NVIC_GetPriorityGrouping               0x0800595d   Thumb Code    10  stm32g4xx_hal_cortex.o(i.__NVIC_GetPriorityGrouping)
    i.__NVIC_SetPriority                     0x0800596c   Section        0  stm32g4xx_hal_cortex.o(i.__NVIC_SetPriority)
    __NVIC_SetPriority                       0x0800596d   Thumb Code    32  stm32g4xx_hal_cortex.o(i.__NVIC_SetPriority)
    i.__scatterload_copy                     0x08005994   Section       14  handlers.o(i.__scatterload_copy)
    i.__scatterload_null                     0x080059a2   Section        2  handlers.o(i.__scatterload_null)
    i.__scatterload_zeroinit                 0x080059a4   Section       14  handlers.o(i.__scatterload_zeroinit)
    i._printf_core                           0x080059b4   Section        0  printf1.o(i._printf_core)
    _printf_core                             0x080059b5   Thumb Code   336  printf1.o(i._printf_core)
    i.anycheck                               0x08005b08   Section        0  dc_motor_stall_lib.o(i.anycheck)
    i.at_rec_process                         0x08005b3c   Section        0  bsp_usart.o(i.at_rec_process)
    i.dcmotor_init                           0x08005c60   Section        0  dc_motor.o(i.dcmotor_init)
    i.duya_Curtain_Position_set              0x08005c90   Section        0  curtain_duya.o(i.duya_Curtain_Position_set)
    i.duya_curtain_mode_set                  0x08005c9c   Section        0  curtain_duya.o(i.duya_curtain_mode_set)
    i.error_loop                             0x08005cf2   Section        0  curtain.o(i.error_loop)
    i.fputc                                  0x08005cf4   Section        0  bsp_usart.o(i.fputc)
    i.getDirection                           0x08005d10   Section        0  dc_motor_hall.o(i.getDirection)
    i.get_hall_state                         0x08005d9c   Section        0  dc_motor_hall.o(i.get_hall_state)
    i.main                                   0x08005dc4   Section        0  main.o(i.main)
    i.maxCheck                               0x08005e04   Section        0  dc_motor_stall_lib.o(i.maxCheck)
    i.micros                                 0x08005e9c   Section        0  dc_motor_hall.o(i.micros)
    i.minCheck                               0x08005ecc   Section        0  dc_motor_stall_lib.o(i.minCheck)
    i.position_loop                          0x08005f68   Section        0  curtain.o(i.position_loop)
    .constdata                               0x080060d8   Section       24  stm32g4xx_hal_uart.o(.constdata)
    .constdata                               0x080060f0   Section       16  stm32g4xx_hal_uart_ex.o(.constdata)
    numerator                                0x080060f0   Data           8  stm32g4xx_hal_uart_ex.o(.constdata)
    denominator                              0x080060f8   Data           8  stm32g4xx_hal_uart_ex.o(.constdata)
    .constdata                               0x08006100   Section       24  system_stm32g4xx.o(.constdata)
    .data                                    0x20000000   Section       16  bsp_usart.o(.data)
    .data                                    0x20000010   Section       12  stm32g4xx_hal.o(.data)
    .data                                    0x2000001c   Section        4  system_stm32g4xx.o(.data)
    .data                                    0x20000020   Section        4  stdout.o(.data)
    .bss                                     0x20000024   Section       12  curtain.o(.bss)
    .bss                                     0x20000030   Section      108  adc.o(.bss)
    .bss                                     0x2000009c   Section       76  tim.o(.bss)
    .bss                                     0x200000e8   Section      144  usart.o(.bss)
    .bss                                     0x20000178   Section      260  bsp_usart.o(.bss)
    .bss                                     0x2000027c   Section       12  dc_motor.o(.bss)
    .bss                                     0x20000288   Section       24  dc_motor_driver.o(.bss)
    .bss                                     0x200002a0   Section       24  dc_motor_hall.o(.bss)
    .bss                                     0x200002b8   Section       24  dc_motor_security.o(.bss)
    STACK                                    0x200002d0   Section     1024  startup_stm32g431xx.o(STACK)

    Global Symbols

    Symbol Name                              Value     Ov Type        Size  Object(Section)

    BuildAttributes$$THM_ISAv4$E$P$D$K$B$S$7EM$VFPi3$EXTD16$VFPS$VFMA$PE$A:L22UL41UL21$X:L11$S22US41US21$IEEE1$IW$USESV6$~STKCKD$USESV7$~SHL$OTIME$ROPI$EBA8$MICROLIB$REQ8$PRES8$EABIv2 0x00000000   Number         0  anon$$obj.o ABSOLUTE
    __ARM_use_no_argv                        0x00000000   Number         0  main.o ABSOLUTE
    _printf_a                                0x00000000   Number         0  stubs.o ABSOLUTE
    _printf_c                                0x00000000   Number         0  stubs.o ABSOLUTE
    _printf_charcount                        0x00000000   Number         0  stubs.o ABSOLUTE
    _printf_d                                0x00000000   Number         0  stubs.o ABSOLUTE
    _printf_e                                0x00000000   Number         0  stubs.o ABSOLUTE
    _printf_f                                0x00000000   Number         0  stubs.o ABSOLUTE
    _printf_flags                            0x00000000   Number         0  stubs.o ABSOLUTE
    _printf_fp_dec                           0x00000000   Number         0  stubs.o ABSOLUTE
    _printf_fp_hex                           0x00000000   Number         0  stubs.o ABSOLUTE
    _printf_g                                0x00000000   Number         0  stubs.o ABSOLUTE
    _printf_i                                0x00000000   Number         0  stubs.o ABSOLUTE
    _printf_int_dec                          0x00000000   Number         0  stubs.o ABSOLUTE
    _printf_l                                0x00000000   Number         0  stubs.o ABSOLUTE
    _printf_lc                               0x00000000   Number         0  stubs.o ABSOLUTE
    _printf_ll                               0x00000000   Number         0  stubs.o ABSOLUTE
    _printf_lld                              0x00000000   Number         0  stubs.o ABSOLUTE
    _printf_lli                              0x00000000   Number         0  stubs.o ABSOLUTE
    _printf_llo                              0x00000000   Number         0  stubs.o ABSOLUTE
    _printf_llu                              0x00000000   Number         0  stubs.o ABSOLUTE
    _printf_llx                              0x00000000   Number         0  stubs.o ABSOLUTE
    _printf_longlong_dec                     0x00000000   Number         0  stubs.o ABSOLUTE
    _printf_longlong_hex                     0x00000000   Number         0  stubs.o ABSOLUTE
    _printf_longlong_oct                     0x00000000   Number         0  stubs.o ABSOLUTE
    _printf_ls                               0x00000000   Number         0  stubs.o ABSOLUTE
    _printf_mbtowc                           0x00000000   Number         0  stubs.o ABSOLUTE
    _printf_n                                0x00000000   Number         0  stubs.o ABSOLUTE
    _printf_o                                0x00000000   Number         0  stubs.o ABSOLUTE
    _printf_p                                0x00000000   Number         0  stubs.o ABSOLUTE
    _printf_percent                          0x00000000   Number         0  stubs.o ABSOLUTE
    _printf_pre_padding                      0x00000000   Number         0  stubs.o ABSOLUTE
    _printf_return_value                     0x00000000   Number         0  stubs.o ABSOLUTE
    _printf_s                                0x00000000   Number         0  stubs.o ABSOLUTE
    _printf_sizespec                         0x00000000   Number         0  stubs.o ABSOLUTE
    _printf_str                              0x00000000   Number         0  stubs.o ABSOLUTE
    _printf_truncate_signed                  0x00000000   Number         0  stubs.o ABSOLUTE
    _printf_truncate_unsigned                0x00000000   Number         0  stubs.o ABSOLUTE
    _printf_u                                0x00000000   Number         0  stubs.o ABSOLUTE
    _printf_wc                               0x00000000   Number         0  stubs.o ABSOLUTE
    _printf_wctomb                           0x00000000   Number         0  stubs.o ABSOLUTE
    _printf_widthprec                        0x00000000   Number         0  stubs.o ABSOLUTE
    _printf_x                                0x00000000   Number         0  stubs.o ABSOLUTE
    __cpp_initialize__aeabi_                  - Undefined Weak Reference
    __cxa_finalize                            - Undefined Weak Reference
    __decompress                              - Undefined Weak Reference
    _clock_init                               - Undefined Weak Reference
    _microlib_exit                            - Undefined Weak Reference
    __Vectors_Size                           0x000001d8   Number         0  startup_stm32g431xx.o ABSOLUTE
    __Vectors                                0x08000000   Data           4  startup_stm32g431xx.o(RESET)
    __Vectors_End                            0x080001d8   Data           0  startup_stm32g431xx.o(RESET)
    __main                                   0x080001d9   Thumb Code     0  entry.o(.ARM.Collect$$$$00000000)
    _main_stk                                0x080001d9   Thumb Code     0  entry2.o(.ARM.Collect$$$$00000001)
    _main_scatterload                        0x080001dd   Thumb Code     0  entry5.o(.ARM.Collect$$$$00000004)
    __main_after_scatterload                 0x080001e1   Thumb Code     0  entry5.o(.ARM.Collect$$$$00000004)
    _main_clock                              0x080001e1   Thumb Code     0  entry7b.o(.ARM.Collect$$$$00000008)
    _main_cpp_init                           0x080001e1   Thumb Code     0  entry8b.o(.ARM.Collect$$$$0000000A)
    _main_init                               0x080001e1   Thumb Code     0  entry9a.o(.ARM.Collect$$$$0000000B)
    __rt_final_cpp                           0x080001e9   Thumb Code     0  entry10a.o(.ARM.Collect$$$$0000000D)
    __rt_final_exit                          0x080001e9   Thumb Code     0  entry11a.o(.ARM.Collect$$$$0000000F)
    Reset_Handler                            0x080001ed   Thumb Code     8  startup_stm32g431xx.o(.text)
    NMI_Handler                              0x080001f5   Thumb Code     2  startup_stm32g431xx.o(.text)
    HardFault_Handler                        0x080001f7   Thumb Code     2  startup_stm32g431xx.o(.text)
    MemManage_Handler                        0x080001f9   Thumb Code     2  startup_stm32g431xx.o(.text)
    BusFault_Handler                         0x080001fb   Thumb Code     2  startup_stm32g431xx.o(.text)
    UsageFault_Handler                       0x080001fd   Thumb Code     2  startup_stm32g431xx.o(.text)
    SVC_Handler                              0x080001ff   Thumb Code     2  startup_stm32g431xx.o(.text)
    DebugMon_Handler                         0x08000201   Thumb Code     2  startup_stm32g431xx.o(.text)
    PendSV_Handler                           0x08000203   Thumb Code     2  startup_stm32g431xx.o(.text)
    ADC1_2_IRQHandler                        0x08000207   Thumb Code     0  startup_stm32g431xx.o(.text)
    COMP1_2_3_IRQHandler                     0x08000207   Thumb Code     0  startup_stm32g431xx.o(.text)
    COMP4_IRQHandler                         0x08000207   Thumb Code     0  startup_stm32g431xx.o(.text)
    CORDIC_IRQHandler                        0x08000207   Thumb Code     0  startup_stm32g431xx.o(.text)
    CRS_IRQHandler                           0x08000207   Thumb Code     0  startup_stm32g431xx.o(.text)
    DMA1_Channel1_IRQHandler                 0x08000207   Thumb Code     0  startup_stm32g431xx.o(.text)
    DMA1_Channel2_IRQHandler                 0x08000207   Thumb Code     0  startup_stm32g431xx.o(.text)
    DMA1_Channel3_IRQHandler                 0x08000207   Thumb Code     0  startup_stm32g431xx.o(.text)
    DMA1_Channel4_IRQHandler                 0x08000207   Thumb Code     0  startup_stm32g431xx.o(.text)
    DMA1_Channel5_IRQHandler                 0x08000207   Thumb Code     0  startup_stm32g431xx.o(.text)
    DMA1_Channel6_IRQHandler                 0x08000207   Thumb Code     0  startup_stm32g431xx.o(.text)
    DMA2_Channel1_IRQHandler                 0x08000207   Thumb Code     0  startup_stm32g431xx.o(.text)
    DMA2_Channel2_IRQHandler                 0x08000207   Thumb Code     0  startup_stm32g431xx.o(.text)
    DMA2_Channel3_IRQHandler                 0x08000207   Thumb Code     0  startup_stm32g431xx.o(.text)
    DMA2_Channel4_IRQHandler                 0x08000207   Thumb Code     0  startup_stm32g431xx.o(.text)
    DMA2_Channel5_IRQHandler                 0x08000207   Thumb Code     0  startup_stm32g431xx.o(.text)
    DMA2_Channel6_IRQHandler                 0x08000207   Thumb Code     0  startup_stm32g431xx.o(.text)
    DMAMUX_OVR_IRQHandler                    0x08000207   Thumb Code     0  startup_stm32g431xx.o(.text)
    EXTI1_IRQHandler                         0x08000207   Thumb Code     0  startup_stm32g431xx.o(.text)
    EXTI2_IRQHandler                         0x08000207   Thumb Code     0  startup_stm32g431xx.o(.text)
    EXTI4_IRQHandler                         0x08000207   Thumb Code     0  startup_stm32g431xx.o(.text)
    EXTI9_5_IRQHandler                       0x08000207   Thumb Code     0  startup_stm32g431xx.o(.text)
    FDCAN1_IT0_IRQHandler                    0x08000207   Thumb Code     0  startup_stm32g431xx.o(.text)
    FDCAN1_IT1_IRQHandler                    0x08000207   Thumb Code     0  startup_stm32g431xx.o(.text)
    FLASH_IRQHandler                         0x08000207   Thumb Code     0  startup_stm32g431xx.o(.text)
    FMAC_IRQHandler                          0x08000207   Thumb Code     0  startup_stm32g431xx.o(.text)
    FPU_IRQHandler                           0x08000207   Thumb Code     0  startup_stm32g431xx.o(.text)
    I2C1_ER_IRQHandler                       0x08000207   Thumb Code     0  startup_stm32g431xx.o(.text)
    I2C1_EV_IRQHandler                       0x08000207   Thumb Code     0  startup_stm32g431xx.o(.text)
    I2C2_ER_IRQHandler                       0x08000207   Thumb Code     0  startup_stm32g431xx.o(.text)
    I2C2_EV_IRQHandler                       0x08000207   Thumb Code     0  startup_stm32g431xx.o(.text)
    I2C3_ER_IRQHandler                       0x08000207   Thumb Code     0  startup_stm32g431xx.o(.text)
    I2C3_EV_IRQHandler                       0x08000207   Thumb Code     0  startup_stm32g431xx.o(.text)
    LPTIM1_IRQHandler                        0x08000207   Thumb Code     0  startup_stm32g431xx.o(.text)
    LPUART1_IRQHandler                       0x08000207   Thumb Code     0  startup_stm32g431xx.o(.text)
    PVD_PVM_IRQHandler                       0x08000207   Thumb Code     0  startup_stm32g431xx.o(.text)
    RCC_IRQHandler                           0x08000207   Thumb Code     0  startup_stm32g431xx.o(.text)
    RNG_IRQHandler                           0x08000207   Thumb Code     0  startup_stm32g431xx.o(.text)
    RTC_Alarm_IRQHandler                     0x08000207   Thumb Code     0  startup_stm32g431xx.o(.text)
    RTC_TAMP_LSECSS_IRQHandler               0x08000207   Thumb Code     0  startup_stm32g431xx.o(.text)
    RTC_WKUP_IRQHandler                      0x08000207   Thumb Code     0  startup_stm32g431xx.o(.text)
    SAI1_IRQHandler                          0x08000207   Thumb Code     0  startup_stm32g431xx.o(.text)
    SPI1_IRQHandler                          0x08000207   Thumb Code     0  startup_stm32g431xx.o(.text)
    SPI2_IRQHandler                          0x08000207   Thumb Code     0  startup_stm32g431xx.o(.text)
    SPI3_IRQHandler                          0x08000207   Thumb Code     0  startup_stm32g431xx.o(.text)
    TIM1_CC_IRQHandler                       0x08000207   Thumb Code     0  startup_stm32g431xx.o(.text)
    TIM1_TRG_COM_TIM17_IRQHandler            0x08000207   Thumb Code     0  startup_stm32g431xx.o(.text)
    TIM2_IRQHandler                          0x08000207   Thumb Code     0  startup_stm32g431xx.o(.text)
    TIM3_IRQHandler                          0x08000207   Thumb Code     0  startup_stm32g431xx.o(.text)
    TIM4_IRQHandler                          0x08000207   Thumb Code     0  startup_stm32g431xx.o(.text)
    TIM6_DAC_IRQHandler                      0x08000207   Thumb Code     0  startup_stm32g431xx.o(.text)
    TIM7_IRQHandler                          0x08000207   Thumb Code     0  startup_stm32g431xx.o(.text)
    TIM8_BRK_IRQHandler                      0x08000207   Thumb Code     0  startup_stm32g431xx.o(.text)
    TIM8_CC_IRQHandler                       0x08000207   Thumb Code     0  startup_stm32g431xx.o(.text)
    TIM8_TRG_COM_IRQHandler                  0x08000207   Thumb Code     0  startup_stm32g431xx.o(.text)
    TIM8_UP_IRQHandler                       0x08000207   Thumb Code     0  startup_stm32g431xx.o(.text)
    UART4_IRQHandler                         0x08000207   Thumb Code     0  startup_stm32g431xx.o(.text)
    UCPD1_IRQHandler                         0x08000207   Thumb Code     0  startup_stm32g431xx.o(.text)
    USART1_IRQHandler                        0x08000207   Thumb Code     0  startup_stm32g431xx.o(.text)
    USART3_IRQHandler                        0x08000207   Thumb Code     0  startup_stm32g431xx.o(.text)
    USBWakeUp_IRQHandler                     0x08000207   Thumb Code     0  startup_stm32g431xx.o(.text)
    USB_HP_IRQHandler                        0x08000207   Thumb Code     0  startup_stm32g431xx.o(.text)
    USB_LP_IRQHandler                        0x08000207   Thumb Code     0  startup_stm32g431xx.o(.text)
    WWDG_IRQHandler                          0x08000207   Thumb Code     0  startup_stm32g431xx.o(.text)
    __aeabi_uldivmod                         0x08000211   Thumb Code    98  uldiv.o(.text)
    __aeabi_memcpy                           0x08000273   Thumb Code    36  memcpya.o(.text)
    __aeabi_memcpy4                          0x08000273   Thumb Code     0  memcpya.o(.text)
    __aeabi_memcpy8                          0x08000273   Thumb Code     0  memcpya.o(.text)
    __aeabi_memset                           0x08000297   Thumb Code    14  memseta.o(.text)
    __aeabi_memset4                          0x08000297   Thumb Code     0  memseta.o(.text)
    __aeabi_memset8                          0x08000297   Thumb Code     0  memseta.o(.text)
    __aeabi_memclr                           0x080002a5   Thumb Code     4  memseta.o(.text)
    __aeabi_memclr4                          0x080002a5   Thumb Code     0  memseta.o(.text)
    __aeabi_memclr8                          0x080002a5   Thumb Code     0  memseta.o(.text)
    _memset$wrapper                          0x080002a9   Thumb Code    18  memseta.o(.text)
    strcmp                                   0x080002bb   Thumb Code    28  strcmp.o(.text)
    strncmp                                  0x080002d7   Thumb Code    30  strncmp.o(.text)
    __aeabi_uidiv                            0x080002f5   Thumb Code     0  uidiv.o(.text)
    __aeabi_uidivmod                         0x080002f5   Thumb Code    44  uidiv.o(.text)
    __aeabi_llsl                             0x08000321   Thumb Code    30  llshl.o(.text)
    _ll_shift_l                              0x08000321   Thumb Code     0  llshl.o(.text)
    __aeabi_llsr                             0x0800033f   Thumb Code    32  llushr.o(.text)
    _ll_ushift_r                             0x0800033f   Thumb Code     0  llushr.o(.text)
    __scatterload                            0x08000361   Thumb Code    28  init.o(.text)
    __scatterload_rt2                        0x08000361   Thumb Code     0  init.o(.text)
    ADC_ConversionStop                       0x08000385   Thumb Code   276  stm32g4xx_hal_adc.o(i.ADC_ConversionStop)
    ADC_Disable                              0x080004a1   Thumb Code   142  stm32g4xx_hal_adc.o(i.ADC_Disable)
    ADC_Enable                               0x08000535   Thumb Code   128  stm32g4xx_hal_adc.o(i.ADC_Enable)
    Calibration_init                         0x080005b9   Thumb Code    40  curtain.o(i.Calibration_init)
    Calibration_loop                         0x080005e9   Thumb Code   298  curtain.o(i.Calibration_loop)
    CurrentCheck_loop                        0x0800073d   Thumb Code    16  dc_motor_security.o(i.CurrentCheck_loop)
    Curtain_Position_set                     0x08000751   Thumb Code   170  curtain.o(i.Curtain_Position_set)
    Curtain_init                             0x08000831   Thumb Code    32  curtain.o(i.Curtain_init)
    Curtain_loop                             0x08000861   Thumb Code    82  curtain.o(i.Curtain_loop)
    Curtain_mode_set                         0x080008bd   Thumb Code    86  curtain.o(i.Curtain_mode_set)
    DCMorot_SetSpeed                         0x08000921   Thumb Code   206  dc_motor_driver.o(i.DCMorot_SetSpeed)
    Dateprocess                              0x080009fd   Thumb Code    56  bsp_usart.o(i.Dateprocess)
    Driver_init                              0x08000a3d   Thumb Code    24  dc_motor_driver.o(i.Driver_init)
    EXTI0_IRQHandler                         0x08000a5d   Thumb Code    10  stm32g4xx_it.o(i.EXTI0_IRQHandler)
    EXTI15_10_IRQHandler                     0x08000a67   Thumb Code    12  stm32g4xx_it.o(i.EXTI15_10_IRQHandler)
    EXTI3_IRQHandler                         0x08000a73   Thumb Code    10  stm32g4xx_it.o(i.EXTI3_IRQHandler)
    Error_Handler                            0x08000a7d   Thumb Code     4  main.o(i.Error_Handler)
    GetSysTime                               0x08000b09   Thumb Code     8  dc_motor_hall.o(i.GetSysTime)
    HAL_ADCEx_InjectedConfigChannel          0x08000b11   Thumb Code  1540  stm32g4xx_hal_adc_ex.o(i.HAL_ADCEx_InjectedConfigChannel)
    HAL_ADCEx_InjectedGetValue               0x0800113d   Thumb Code    62  stm32g4xx_hal_adc_ex.o(i.HAL_ADCEx_InjectedGetValue)
    HAL_ADCEx_InjectedStart                  0x0800117d   Thumb Code   254  stm32g4xx_hal_adc_ex.o(i.HAL_ADCEx_InjectedStart)
    HAL_ADCEx_InjectedStop                   0x08001285   Thumb Code    92  stm32g4xx_hal_adc_ex.o(i.HAL_ADCEx_InjectedStop)
    HAL_ADC_ConfigChannel                    0x080012e1   Thumb Code  1252  stm32g4xx_hal_adc.o(i.HAL_ADC_ConfigChannel)
    HAL_ADC_Init                             0x080017e9   Thumb Code   586  stm32g4xx_hal_adc.o(i.HAL_ADC_Init)
    HAL_ADC_MspInit                          0x08001a51   Thumb Code   102  adc.o(i.HAL_ADC_MspInit)
    HAL_ADC_PollForConversion                0x08001ac1   Thumb Code   302  stm32g4xx_hal_adc.o(i.HAL_ADC_PollForConversion)
    HAL_DMA_Abort                            0x08001bf9   Thumb Code   118  stm32g4xx_hal_dma.o(i.HAL_DMA_Abort)
    HAL_DMA_Abort_IT                         0x08001c6f   Thumb Code   148  stm32g4xx_hal_dma.o(i.HAL_DMA_Abort_IT)
    HAL_Delay                                0x08001d05   Thumb Code    36  stm32g4xx_hal.o(i.HAL_Delay)
    HAL_GPIO_EXTI_Callback                   0x08001d2d   Thumb Code    40  gpio.o(i.HAL_GPIO_EXTI_Callback)
    HAL_GPIO_EXTI_IRQHandler                 0x08001d69   Thumb Code    24  stm32g4xx_hal_gpio.o(i.HAL_GPIO_EXTI_IRQHandler)
    HAL_GPIO_Init                            0x08001d85   Thumb Code   438  stm32g4xx_hal_gpio.o(i.HAL_GPIO_Init)
    HAL_GPIO_ReadPin                         0x08001f5d   Thumb Code    16  stm32g4xx_hal_gpio.o(i.HAL_GPIO_ReadPin)
    HAL_GPIO_WritePin                        0x08001f6d   Thumb Code    10  stm32g4xx_hal_gpio.o(i.HAL_GPIO_WritePin)
    HAL_GetTick                              0x08001f79   Thumb Code     6  stm32g4xx_hal.o(i.HAL_GetTick)
    HAL_IncTick                              0x08001f85   Thumb Code    16  stm32g4xx_hal.o(i.HAL_IncTick)
    HAL_Init                                 0x08001f9d   Thumb Code    30  stm32g4xx_hal.o(i.HAL_Init)
    HAL_InitTick                             0x08001fbd   Thumb Code    74  stm32g4xx_hal.o(i.HAL_InitTick)
    HAL_MspInit                              0x08002015   Thumb Code    62  stm32g4xx_hal_msp.o(i.HAL_MspInit)
    HAL_NVIC_EnableIRQ                       0x08002059   Thumb Code    40  stm32g4xx_hal_cortex.o(i.HAL_NVIC_EnableIRQ)
    HAL_NVIC_SetPriority                     0x08002081   Thumb Code   122  stm32g4xx_hal_cortex.o(i.HAL_NVIC_SetPriority)
    HAL_NVIC_SetPriorityGrouping             0x080020fd   Thumb Code    32  stm32g4xx_hal_cortex.o(i.HAL_NVIC_SetPriorityGrouping)
    HAL_PWREx_ControlVoltageScaling          0x08002125   Thumb Code   268  stm32g4xx_hal_pwr_ex.o(i.HAL_PWREx_ControlVoltageScaling)
    HAL_PWREx_DisableUCPDDeadBattery         0x0800223d   Thumb Code    14  stm32g4xx_hal_pwr_ex.o(i.HAL_PWREx_DisableUCPDDeadBattery)
    HAL_RCCEx_PeriphCLKConfig                0x08002251   Thumb Code   872  stm32g4xx_hal_rcc_ex.o(i.HAL_RCCEx_PeriphCLKConfig)
    HAL_RCC_ClockConfig                      0x080025c1   Thumb Code   522  stm32g4xx_hal_rcc.o(i.HAL_RCC_ClockConfig)
    HAL_RCC_EnableCSS                        0x080027e5   Thumb Code    14  stm32g4xx_hal_rcc.o(i.HAL_RCC_EnableCSS)
    HAL_RCC_GetHCLKFreq                      0x080027f9   Thumb Code     6  stm32g4xx_hal_rcc.o(i.HAL_RCC_GetHCLKFreq)
    HAL_RCC_GetPCLK1Freq                     0x08002805   Thumb Code    26  stm32g4xx_hal_rcc.o(i.HAL_RCC_GetPCLK1Freq)
    HAL_RCC_GetPCLK2Freq                     0x08002829   Thumb Code    26  stm32g4xx_hal_rcc.o(i.HAL_RCC_GetPCLK2Freq)
    HAL_RCC_GetSysClockFreq                  0x0800284d   Thumb Code   138  stm32g4xx_hal_rcc.o(i.HAL_RCC_GetSysClockFreq)
    HAL_RCC_OscConfig                        0x080028e5   Thumb Code  1370  stm32g4xx_hal_rcc.o(i.HAL_RCC_OscConfig)
    HAL_SYSTICK_Config                       0x08002e4d   Thumb Code    52  stm32g4xx_hal_cortex.o(i.HAL_SYSTICK_Config)
    HAL_TIMEx_Break2Callback                 0x08002e81   Thumb Code     2  stm32g4xx_hal_tim_ex.o(i.HAL_TIMEx_Break2Callback)
    HAL_TIMEx_BreakCallback                  0x08002e83   Thumb Code     2  stm32g4xx_hal_tim_ex.o(i.HAL_TIMEx_BreakCallback)
    HAL_TIMEx_CommutCallback                 0x08002e85   Thumb Code     2  stm32g4xx_hal_tim_ex.o(i.HAL_TIMEx_CommutCallback)
    HAL_TIMEx_ConfigBreakDeadTime            0x08002e89   Thumb Code   224  stm32g4xx_hal_tim_ex.o(i.HAL_TIMEx_ConfigBreakDeadTime)
    HAL_TIMEx_DirectionChangeCallback        0x08002f71   Thumb Code     2  stm32g4xx_hal_tim_ex.o(i.HAL_TIMEx_DirectionChangeCallback)
    HAL_TIMEx_EncoderIndexCallback           0x08002f73   Thumb Code     2  stm32g4xx_hal_tim_ex.o(i.HAL_TIMEx_EncoderIndexCallback)
    HAL_TIMEx_IndexErrorCallback             0x08002f75   Thumb Code     2  stm32g4xx_hal_tim_ex.o(i.HAL_TIMEx_IndexErrorCallback)
    HAL_TIMEx_MasterConfigSynchronization    0x08002f79   Thumb Code   158  stm32g4xx_hal_tim_ex.o(i.HAL_TIMEx_MasterConfigSynchronization)
    HAL_TIMEx_TransitionErrorCallback        0x08003031   Thumb Code     2  stm32g4xx_hal_tim_ex.o(i.HAL_TIMEx_TransitionErrorCallback)
    HAL_TIM_Base_Init                        0x08003033   Thumb Code   110  stm32g4xx_hal_tim.o(i.HAL_TIM_Base_Init)
    HAL_TIM_Base_MspInit                     0x080030a1   Thumb Code    74  tim.o(i.HAL_TIM_Base_MspInit)
    HAL_TIM_ConfigClockSource                0x080030f5   Thumb Code   296  stm32g4xx_hal_tim.o(i.HAL_TIM_ConfigClockSource)
    HAL_TIM_IC_CaptureCallback               0x08003225   Thumb Code     2  stm32g4xx_hal_tim.o(i.HAL_TIM_IC_CaptureCallback)
    HAL_TIM_IRQHandler                       0x08003227   Thumb Code   576  stm32g4xx_hal_tim.o(i.HAL_TIM_IRQHandler)
    HAL_TIM_MspPostInit                      0x08003469   Thumb Code    80  tim.o(i.HAL_TIM_MspPostInit)
    HAL_TIM_OC_DelayElapsedCallback          0x080034c1   Thumb Code     2  stm32g4xx_hal_tim.o(i.HAL_TIM_OC_DelayElapsedCallback)
    HAL_TIM_PWM_ConfigChannel                0x080034c3   Thumb Code   360  stm32g4xx_hal_tim.o(i.HAL_TIM_PWM_ConfigChannel)
    HAL_TIM_PWM_Init                         0x0800362b   Thumb Code   110  stm32g4xx_hal_tim.o(i.HAL_TIM_PWM_Init)
    HAL_TIM_PWM_MspInit                      0x08003699   Thumb Code     2  stm32g4xx_hal_tim.o(i.HAL_TIM_PWM_MspInit)
    HAL_TIM_PWM_PulseFinishedCallback        0x0800369b   Thumb Code     2  stm32g4xx_hal_tim.o(i.HAL_TIM_PWM_PulseFinishedCallback)
    HAL_TIM_PWM_Start                        0x0800369d   Thumb Code   298  stm32g4xx_hal_tim.o(i.HAL_TIM_PWM_Start)
    HAL_TIM_PWM_Stop                         0x080037e9   Thumb Code   208  stm32g4xx_hal_tim.o(i.HAL_TIM_PWM_Stop)
    HAL_TIM_PeriodElapsedCallback            0x080038cd   Thumb Code     2  stm32g4xx_hal_tim.o(i.HAL_TIM_PeriodElapsedCallback)
    HAL_TIM_TriggerCallback                  0x080038cf   Thumb Code     2  stm32g4xx_hal_tim.o(i.HAL_TIM_TriggerCallback)
    HAL_UARTEx_DisableFifoMode               0x080038d1   Thumb Code    78  stm32g4xx_hal_uart_ex.o(i.HAL_UARTEx_DisableFifoMode)
    HAL_UARTEx_ReceiveToIdle_IT              0x0800391f   Thumb Code   102  stm32g4xx_hal_uart_ex.o(i.HAL_UARTEx_ReceiveToIdle_IT)
    HAL_UARTEx_RxEventCallback               0x08003985   Thumb Code    92  bsp_usart.o(i.HAL_UARTEx_RxEventCallback)
    HAL_UARTEx_RxFifoFullCallback            0x080039f9   Thumb Code     2  stm32g4xx_hal_uart_ex.o(i.HAL_UARTEx_RxFifoFullCallback)
    HAL_UARTEx_SetRxFifoThreshold            0x080039fb   Thumb Code    94  stm32g4xx_hal_uart_ex.o(i.HAL_UARTEx_SetRxFifoThreshold)
    HAL_UARTEx_SetTxFifoThreshold            0x08003a59   Thumb Code    94  stm32g4xx_hal_uart_ex.o(i.HAL_UARTEx_SetTxFifoThreshold)
    HAL_UARTEx_TxFifoEmptyCallback           0x08003ab7   Thumb Code     2  stm32g4xx_hal_uart_ex.o(i.HAL_UARTEx_TxFifoEmptyCallback)
    HAL_UARTEx_WakeupCallback                0x08003ab9   Thumb Code     2  stm32g4xx_hal_uart_ex.o(i.HAL_UARTEx_WakeupCallback)
    HAL_UART_ErrorCallback                   0x08003abb   Thumb Code     2  stm32g4xx_hal_uart.o(i.HAL_UART_ErrorCallback)
    HAL_UART_IRQHandler                      0x08003abd   Thumb Code   762  stm32g4xx_hal_uart.o(i.HAL_UART_IRQHandler)
    HAL_UART_Init                            0x08003dc5   Thumb Code   120  stm32g4xx_hal_uart.o(i.HAL_UART_Init)
    HAL_UART_MspInit                         0x08003e3d   Thumb Code   124  usart.o(i.HAL_UART_MspInit)
    HAL_UART_RxCpltCallback                  0x08003ec1   Thumb Code     2  stm32g4xx_hal_uart.o(i.HAL_UART_RxCpltCallback)
    HAL_UART_Transmit                        0x08003ec3   Thumb Code   214  stm32g4xx_hal_uart.o(i.HAL_UART_Transmit)
    HAL_UART_TxCpltCallback                  0x08003f99   Thumb Code     2  stm32g4xx_hal_uart.o(i.HAL_UART_TxCpltCallback)
    Hall_init                                0x08003f9d   Thumb Code    46  dc_motor_hall.o(i.Hall_init)
    InterruptsProcess                        0x08003fd5   Thumb Code   102  dc_motor_hall.o(i.InterruptsProcess)
    MX_ADC2_Init                             0x080041b1   Thumb Code   194  adc.o(i.MX_ADC2_Init)
    MX_GPIO_Init                             0x08004281   Thumb Code   286  gpio.o(i.MX_GPIO_Init)
    MX_TIM1_Init                             0x080043b5   Thumb Code   224  tim.o(i.MX_TIM1_Init)
    MX_USART2_UART_Init                      0x0800449d   Thumb Code    98  usart.o(i.MX_USART2_UART_Init)
    PositionDetection                        0x08004509   Thumb Code   166  curtain.o(i.PositionDetection)
    Security_init                            0x0800463d   Thumb Code    38  dc_motor_security.o(i.Security_init)
    StallCheck_loop                          0x08004671   Thumb Code    76  dc_motor_security.o(i.StallCheck_loop)
    Standby_loop                             0x080046c9   Thumb Code   198  curtain.o(i.Standby_loop)
    StartUart                                0x080047b1   Thumb Code    14  bsp_usart.o(i.StartUart)
    SysTick_Handler                          0x080047c9   Thumb Code     8  stm32g4xx_it.o(i.SysTick_Handler)
    SystemClock_Config                       0x080047d1   Thumb Code   160  main.o(i.SystemClock_Config)
    SystemInit                               0x08004871   Thumb Code    14  system_stm32g4xx.o(i.SystemInit)
    TIM1_BRK_TIM15_IRQHandler                0x08004885   Thumb Code    10  stm32g4xx_it.o(i.TIM1_BRK_TIM15_IRQHandler)
    TIM1_UP_TIM16_IRQHandler                 0x08004895   Thumb Code    10  stm32g4xx_it.o(i.TIM1_UP_TIM16_IRQHandler)
    TIM_Base_SetConfig                       0x080048a5   Thumb Code   158  stm32g4xx_hal_tim.o(i.TIM_Base_SetConfig)
    TIM_CCxChannelCmd                        0x08004961   Thumb Code    34  stm32g4xx_hal_tim.o(i.TIM_CCxChannelCmd)
    TIM_ETR_SetConfig                        0x08004983   Thumb Code    22  stm32g4xx_hal_tim.o(i.TIM_ETR_SetConfig)
    TIM_OC2_SetConfig                        0x08004a5d   Thumb Code   156  stm32g4xx_hal_tim.o(i.TIM_OC2_SetConfig)
    UART_AdvFeatureConfig                    0x08004e01   Thumb Code   248  stm32g4xx_hal_uart.o(i.UART_AdvFeatureConfig)
    UART_CheckIdleState                      0x08004ef9   Thumb Code   118  stm32g4xx_hal_uart.o(i.UART_CheckIdleState)
    UART_SetConfig                           0x080053d1   Thumb Code   866  stm32g4xx_hal_uart.o(i.UART_SetConfig)
    UART_Start_Receive_IT                    0x0800575d   Thumb Code   256  stm32g4xx_hal_uart.o(i.UART_Start_Receive_IT)
    UART_WaitOnFlagUntilTimeout              0x0800586d   Thumb Code   190  stm32g4xx_hal_uart.o(i.UART_WaitOnFlagUntilTimeout)
    USART2_IRQHandler                        0x0800592d   Thumb Code    10  stm32g4xx_it.o(i.USART2_IRQHandler)
    __0printf$1                              0x0800593d   Thumb Code    22  printf1.o(i.__0printf$1)
    __1printf$1                              0x0800593d   Thumb Code     0  printf1.o(i.__0printf$1)
    __2printf                                0x0800593d   Thumb Code     0  printf1.o(i.__0printf$1)
    __scatterload_copy                       0x08005995   Thumb Code    14  handlers.o(i.__scatterload_copy)
    __scatterload_null                       0x080059a3   Thumb Code     2  handlers.o(i.__scatterload_null)
    __scatterload_zeroinit                   0x080059a5   Thumb Code    14  handlers.o(i.__scatterload_zeroinit)
    anycheck                                 0x08005b09   Thumb Code    42  dc_motor_stall_lib.o(i.anycheck)
    at_rec_process                           0x08005b3d   Thumb Code   206  bsp_usart.o(i.at_rec_process)
    dcmotor_init                             0x08005c61   Thumb Code    30  dc_motor.o(i.dcmotor_init)
    duya_Curtain_Position_set                0x08005c91   Thumb Code    12  curtain_duya.o(i.duya_Curtain_Position_set)
    duya_curtain_mode_set                    0x08005c9d   Thumb Code    86  curtain_duya.o(i.duya_curtain_mode_set)
    error_loop                               0x08005cf3   Thumb Code     2  curtain.o(i.error_loop)
    fputc                                    0x08005cf5   Thumb Code    22  bsp_usart.o(i.fputc)
    getDirection                             0x08005d11   Thumb Code   128  dc_motor_hall.o(i.getDirection)
    get_hall_state                           0x08005d9d   Thumb Code    36  dc_motor_hall.o(i.get_hall_state)
    main                                     0x08005dc5   Thumb Code    48  main.o(i.main)
    maxCheck                                 0x08005e05   Thumb Code   120  dc_motor_stall_lib.o(i.maxCheck)
    micros                                   0x08005e9d   Thumb Code    44  dc_motor_hall.o(i.micros)
    minCheck                                 0x08005ecd   Thumb Code   122  dc_motor_stall_lib.o(i.minCheck)
    position_loop                            0x08005f69   Thumb Code   322  curtain.o(i.position_loop)
    UARTPrescTable                           0x080060d8   Data          24  stm32g4xx_hal_uart.o(.constdata)
    AHBPrescTable                            0x08006100   Data          16  system_stm32g4xx.o(.constdata)
    APBPrescTable                            0x08006110   Data           8  system_stm32g4xx.o(.constdata)
    Region$$Table$$Base                      0x08006118   Number         0  anon$$obj.o(Region$$Table)
    Region$$Table$$Limit                     0x08006138   Number         0  anon$$obj.o(Region$$Table)
    uart2tempbufferSIZE                      0x20000000   Data           1  bsp_usart.o(.data)
    usart2writrpos                           0x20000004   Data           4  bsp_usart.o(.data)
    resp                                     0x20000008   Data           4  bsp_usart.o(.data)
    date                                     0x2000000c   Data           4  bsp_usart.o(.data)
    uwTick                                   0x20000010   Data           4  stm32g4xx_hal.o(.data)
    uwTickPrio                               0x20000014   Data           4  stm32g4xx_hal.o(.data)
    uwTickFreq                               0x20000018   Data           4  stm32g4xx_hal.o(.data)
    SystemCoreClock                          0x2000001c   Data           4  system_stm32g4xx.o(.data)
    __stdout                                 0x20000020   Data           4  stdout.o(.data)
    curtain                                  0x20000024   Data          12  curtain.o(.bss)
    hadc2                                    0x20000030   Data         108  adc.o(.bss)
    htim1                                    0x2000009c   Data          76  tim.o(.bss)
    huart2                                   0x200000e8   Data         144  usart.o(.bss)
    uart2tempbuffer                          0x20000178   Data          20  bsp_usart.o(.bss)
    uart2receivebuffer                       0x2000018c   Data         200  bsp_usart.o(.bss)
    at_event                                 0x20000254   Data          40  bsp_usart.o(.bss)
    dcmotor                                  0x2000027c   Data          12  dc_motor.o(.bss)
    driver                                   0x20000288   Data          24  dc_motor_driver.o(.bss)
    hall                                     0x200002a0   Data          24  dc_motor_hall.o(.bss)
    security                                 0x200002b8   Data          24  dc_motor_security.o(.bss)
    __initial_sp                             0x200006d0   Data           0  startup_stm32g431xx.o(STACK)



==============================================================================

Memory Map of the image

  Image Entry point : 0x080001d9

  Load Region LR_IROM1 (Base: 0x08000000, Size: 0x0000615c, Max: 0x00020000, ABSOLUTE)

    Execution Region ER_IROM1 (Exec base: 0x08000000, Load base: 0x08000000, Size: 0x00006138, Max: 0x00020000, ABSOLUTE)

    Exec Addr    Load Addr    Size         Type   Attr      Idx    E Section Name        Object

    0x08000000   0x08000000   0x000001d8   Data   RO            3    RESET               startup_stm32g431xx.o
    0x080001d8   0x080001d8   0x00000000   Code   RO         4635  * .ARM.Collect$$$$00000000  mc_w.l(entry.o)
    0x080001d8   0x080001d8   0x00000004   Code   RO         4911    .ARM.Collect$$$$00000001  mc_w.l(entry2.o)
    0x080001dc   0x080001dc   0x00000004   Code   RO         4914    .ARM.Collect$$$$00000004  mc_w.l(entry5.o)
    0x080001e0   0x080001e0   0x00000000   Code   RO         4916    .ARM.Collect$$$$00000008  mc_w.l(entry7b.o)
    0x080001e0   0x080001e0   0x00000000   Code   RO         4918    .ARM.Collect$$$$0000000A  mc_w.l(entry8b.o)
    0x080001e0   0x080001e0   0x00000008   Code   RO         4919    .ARM.Collect$$$$0000000B  mc_w.l(entry9a.o)
    0x080001e8   0x080001e8   0x00000000   Code   RO         4921    .ARM.Collect$$$$0000000D  mc_w.l(entry10a.o)
    0x080001e8   0x080001e8   0x00000000   Code   RO         4923    .ARM.Collect$$$$0000000F  mc_w.l(entry11a.o)
    0x080001e8   0x080001e8   0x00000004   Code   RO         4912    .ARM.Collect$$$$00002712  mc_w.l(entry2.o)
    0x080001ec   0x080001ec   0x00000024   Code   RO            4    .text               startup_stm32g431xx.o
    0x08000210   0x08000210   0x00000062   Code   RO         4638    .text               mc_w.l(uldiv.o)
    0x08000272   0x08000272   0x00000024   Code   RO         4640    .text               mc_w.l(memcpya.o)
    0x08000296   0x08000296   0x00000024   Code   RO         4642    .text               mc_w.l(memseta.o)
    0x080002ba   0x080002ba   0x0000001c   Code   RO         4644    .text               mc_w.l(strcmp.o)
    0x080002d6   0x080002d6   0x0000001e   Code   RO         4646    .text               mc_w.l(strncmp.o)
    0x080002f4   0x080002f4   0x0000002c   Code   RO         4926    .text               mc_w.l(uidiv.o)
    0x08000320   0x08000320   0x0000001e   Code   RO         4928    .text               mc_w.l(llshl.o)
    0x0800033e   0x0800033e   0x00000020   Code   RO         4930    .text               mc_w.l(llushr.o)
    0x0800035e   0x0800035e   0x00000002   PAD
    0x08000360   0x08000360   0x00000024   Code   RO         4943    .text               mc_w.l(init.o)
    0x08000384   0x08000384   0x0000011c   Code   RO          626    i.ADC_ConversionStop  stm32g4xx_hal_adc.o
    0x080004a0   0x080004a0   0x00000094   Code   RO          630    i.ADC_Disable       stm32g4xx_hal_adc.o
    0x08000534   0x08000534   0x00000084   Code   RO          631    i.ADC_Enable        stm32g4xx_hal_adc.o
    0x080005b8   0x080005b8   0x00000030   Code   RO           13    i.Calibration_init  curtain.o
    0x080005e8   0x080005e8   0x00000154   Code   RO           14    i.Calibration_loop  curtain.o
    0x0800073c   0x0800073c   0x00000014   Code   RO         4549    i.CurrentCheck_loop  dc_motor_security.o
    0x08000750   0x08000750   0x000000e0   Code   RO           15    i.Curtain_Position_set  curtain.o
    0x08000830   0x08000830   0x00000030   Code   RO           16    i.Curtain_init      curtain.o
    0x08000860   0x08000860   0x0000005c   Code   RO           17    i.Curtain_loop      curtain.o
    0x080008bc   0x080008bc   0x00000064   Code   RO           18    i.Curtain_mode_set  curtain.o
    0x08000920   0x08000920   0x000000dc   Code   RO         4449    i.DCMorot_SetSpeed  dc_motor_driver.o
    0x080009fc   0x080009fc   0x00000040   Code   RO          535    i.Dateprocess       bsp_usart.o
    0x08000a3c   0x08000a3c   0x00000020   Code   RO         4450    i.Driver_init       dc_motor_driver.o
    0x08000a5c   0x08000a5c   0x0000000a   Code   RO          447    i.EXTI0_IRQHandler  stm32g4xx_it.o
    0x08000a66   0x08000a66   0x0000000c   Code   RO          448    i.EXTI15_10_IRQHandler  stm32g4xx_it.o
    0x08000a72   0x08000a72   0x0000000a   Code   RO          449    i.EXTI3_IRQHandler  stm32g4xx_it.o
    0x08000a7c   0x08000a7c   0x00000004   Code   RO          231    i.Error_Handler     main.o
    0x08000a80   0x08000a80   0x00000044   Code   RO         4550    i.GetCurrent        dc_motor_security.o
    0x08000ac4   0x08000ac4   0x00000044   Code   RO         4551    i.GetCurrent_init   dc_motor_security.o
    0x08000b08   0x08000b08   0x00000008   Code   RO         4489    i.GetSysTime        dc_motor_hall.o
    0x08000b10   0x08000b10   0x0000062c   Code   RO          910    i.HAL_ADCEx_InjectedConfigChannel  stm32g4xx_hal_adc_ex.o
    0x0800113c   0x0800113c   0x0000003e   Code   RO          912    i.HAL_ADCEx_InjectedGetValue  stm32g4xx_hal_adc_ex.o
    0x0800117a   0x0800117a   0x00000002   PAD
    0x0800117c   0x0800117c   0x00000108   Code   RO          915    i.HAL_ADCEx_InjectedStart  stm32g4xx_hal_adc_ex.o
    0x08001284   0x08001284   0x0000005c   Code   RO          917    i.HAL_ADCEx_InjectedStop  stm32g4xx_hal_adc_ex.o
    0x080012e0   0x080012e0   0x00000508   Code   RO          633    i.HAL_ADC_ConfigChannel  stm32g4xx_hal_adc.o
    0x080017e8   0x080017e8   0x00000268   Code   RO          642    i.HAL_ADC_Init      stm32g4xx_hal_adc.o
    0x08001a50   0x08001a50   0x00000070   Code   RO          316    i.HAL_ADC_MspInit   adc.o
    0x08001ac0   0x08001ac0   0x00000138   Code   RO          646    i.HAL_ADC_PollForConversion  stm32g4xx_hal_adc.o
    0x08001bf8   0x08001bf8   0x00000076   Code   RO         2034    i.HAL_DMA_Abort     stm32g4xx_hal_dma.o
    0x08001c6e   0x08001c6e   0x00000094   Code   RO         2035    i.HAL_DMA_Abort_IT  stm32g4xx_hal_dma.o
    0x08001d02   0x08001d02   0x00000002   PAD
    0x08001d04   0x08001d04   0x00000028   Code   RO         1145    i.HAL_Delay         stm32g4xx_hal.o
    0x08001d2c   0x08001d2c   0x0000003c   Code   RO          285    i.HAL_GPIO_EXTI_Callback  gpio.o
    0x08001d68   0x08001d68   0x0000001c   Code   RO         1895    i.HAL_GPIO_EXTI_IRQHandler  stm32g4xx_hal_gpio.o
    0x08001d84   0x08001d84   0x000001d8   Code   RO         1896    i.HAL_GPIO_Init     stm32g4xx_hal_gpio.o
    0x08001f5c   0x08001f5c   0x00000010   Code   RO         1898    i.HAL_GPIO_ReadPin  stm32g4xx_hal_gpio.o
    0x08001f6c   0x08001f6c   0x0000000a   Code   RO         1900    i.HAL_GPIO_WritePin  stm32g4xx_hal_gpio.o
    0x08001f76   0x08001f76   0x00000002   PAD
    0x08001f78   0x08001f78   0x0000000c   Code   RO         1149    i.HAL_GetTick       stm32g4xx_hal.o
    0x08001f84   0x08001f84   0x00000018   Code   RO         1152    i.HAL_IncTick       stm32g4xx_hal.o
    0x08001f9c   0x08001f9c   0x0000001e   Code   RO         1153    i.HAL_Init          stm32g4xx_hal.o
    0x08001fba   0x08001fba   0x00000002   PAD
    0x08001fbc   0x08001fbc   0x00000058   Code   RO         1154    i.HAL_InitTick      stm32g4xx_hal.o
    0x08002014   0x08002014   0x00000044   Code   RO          511    i.HAL_MspInit       stm32g4xx_hal_msp.o
    0x08002058   0x08002058   0x00000028   Code   RO         2543    i.HAL_NVIC_EnableIRQ  stm32g4xx_hal_cortex.o
    0x08002080   0x08002080   0x0000007a   Code   RO         2549    i.HAL_NVIC_SetPriority  stm32g4xx_hal_cortex.o
    0x080020fa   0x080020fa   0x00000002   PAD
    0x080020fc   0x080020fc   0x00000028   Code   RO         2550    i.HAL_NVIC_SetPriorityGrouping  stm32g4xx_hal_cortex.o
    0x08002124   0x08002124   0x00000118   Code   RO         2299    i.HAL_PWREx_ControlVoltageScaling  stm32g4xx_hal_pwr_ex.o
    0x0800223c   0x0800223c   0x00000014   Code   RO         2311    i.HAL_PWREx_DisableUCPDDeadBattery  stm32g4xx_hal_pwr_ex.o
    0x08002250   0x08002250   0x00000370   Code   RO         1503    i.HAL_RCCEx_PeriphCLKConfig  stm32g4xx_hal_rcc_ex.o
    0x080025c0   0x080025c0   0x00000224   Code   RO         1373    i.HAL_RCC_ClockConfig  stm32g4xx_hal_rcc.o
    0x080027e4   0x080027e4   0x00000014   Code   RO         1376    i.HAL_RCC_EnableCSS  stm32g4xx_hal_rcc.o
    0x080027f8   0x080027f8   0x0000000c   Code   RO         1379    i.HAL_RCC_GetHCLKFreq  stm32g4xx_hal_rcc.o
    0x08002804   0x08002804   0x00000024   Code   RO         1381    i.HAL_RCC_GetPCLK1Freq  stm32g4xx_hal_rcc.o
    0x08002828   0x08002828   0x00000024   Code   RO         1382    i.HAL_RCC_GetPCLK2Freq  stm32g4xx_hal_rcc.o
    0x0800284c   0x0800284c   0x00000098   Code   RO         1383    i.HAL_RCC_GetSysClockFreq  stm32g4xx_hal_rcc.o
    0x080028e4   0x080028e4   0x00000568   Code   RO         1386    i.HAL_RCC_OscConfig  stm32g4xx_hal_rcc.o
    0x08002e4c   0x08002e4c   0x00000034   Code   RO         2554    i.HAL_SYSTICK_Config  stm32g4xx_hal_cortex.o
    0x08002e80   0x08002e80   0x00000002   Code   RO         3405    i.HAL_TIMEx_Break2Callback  stm32g4xx_hal_tim_ex.o
    0x08002e82   0x08002e82   0x00000002   Code   RO         3406    i.HAL_TIMEx_BreakCallback  stm32g4xx_hal_tim_ex.o
    0x08002e84   0x08002e84   0x00000002   Code   RO         3407    i.HAL_TIMEx_CommutCallback  stm32g4xx_hal_tim_ex.o
    0x08002e86   0x08002e86   0x00000002   PAD
    0x08002e88   0x08002e88   0x000000e8   Code   RO         3410    i.HAL_TIMEx_ConfigBreakDeadTime  stm32g4xx_hal_tim_ex.o
    0x08002f70   0x08002f70   0x00000002   Code   RO         3418    i.HAL_TIMEx_DirectionChangeCallback  stm32g4xx_hal_tim_ex.o
    0x08002f72   0x08002f72   0x00000002   Code   RO         3432    i.HAL_TIMEx_EncoderIndexCallback  stm32g4xx_hal_tim_ex.o
    0x08002f74   0x08002f74   0x00000002   Code   RO         3446    i.HAL_TIMEx_IndexErrorCallback  stm32g4xx_hal_tim_ex.o
    0x08002f76   0x08002f76   0x00000002   PAD
    0x08002f78   0x08002f78   0x000000b8   Code   RO         3447    i.HAL_TIMEx_MasterConfigSynchronization  stm32g4xx_hal_tim_ex.o
    0x08003030   0x08003030   0x00000002   Code   RO         3468    i.HAL_TIMEx_TransitionErrorCallback  stm32g4xx_hal_tim_ex.o
    0x08003032   0x08003032   0x0000006e   Code   RO         2680    i.HAL_TIM_Base_Init  stm32g4xx_hal_tim.o
    0x080030a0   0x080030a0   0x00000054   Code   RO          358    i.HAL_TIM_Base_MspInit  tim.o
    0x080030f4   0x080030f4   0x00000130   Code   RO         2689    i.HAL_TIM_ConfigClockSource  stm32g4xx_hal_tim.o
    0x08003224   0x08003224   0x00000002   Code   RO         2714    i.HAL_TIM_IC_CaptureCallback  stm32g4xx_hal_tim.o
    0x08003226   0x08003226   0x00000240   Code   RO         2728    i.HAL_TIM_IRQHandler  stm32g4xx_hal_tim.o
    0x08003466   0x08003466   0x00000002   PAD
    0x08003468   0x08003468   0x00000058   Code   RO          359    i.HAL_TIM_MspPostInit  tim.o
    0x080034c0   0x080034c0   0x00000002   Code   RO         2731    i.HAL_TIM_OC_DelayElapsedCallback  stm32g4xx_hal_tim.o
    0x080034c2   0x080034c2   0x00000168   Code   RO         2752    i.HAL_TIM_PWM_ConfigChannel  stm32g4xx_hal_tim.o
    0x0800362a   0x0800362a   0x0000006e   Code   RO         2755    i.HAL_TIM_PWM_Init  stm32g4xx_hal_tim.o
    0x08003698   0x08003698   0x00000002   Code   RO         2757    i.HAL_TIM_PWM_MspInit  stm32g4xx_hal_tim.o
    0x0800369a   0x0800369a   0x00000002   Code   RO         2758    i.HAL_TIM_PWM_PulseFinishedCallback  stm32g4xx_hal_tim.o
    0x0800369c   0x0800369c   0x0000014c   Code   RO         2760    i.HAL_TIM_PWM_Start  stm32g4xx_hal_tim.o
    0x080037e8   0x080037e8   0x000000e4   Code   RO         2763    i.HAL_TIM_PWM_Stop  stm32g4xx_hal_tim.o
    0x080038cc   0x080038cc   0x00000002   Code   RO         2766    i.HAL_TIM_PeriodElapsedCallback  stm32g4xx_hal_tim.o
    0x080038ce   0x080038ce   0x00000002   Code   RO         2771    i.HAL_TIM_TriggerCallback  stm32g4xx_hal_tim.o
    0x080038d0   0x080038d0   0x0000004e   Code   RO         4259    i.HAL_UARTEx_DisableFifoMode  stm32g4xx_hal_uart_ex.o
    0x0800391e   0x0800391e   0x00000066   Code   RO         4265    i.HAL_UARTEx_ReceiveToIdle_IT  stm32g4xx_hal_uart_ex.o
    0x08003984   0x08003984   0x00000074   Code   RO          536    i.HAL_UARTEx_RxEventCallback  bsp_usart.o
    0x080039f8   0x080039f8   0x00000002   Code   RO         4266    i.HAL_UARTEx_RxFifoFullCallback  stm32g4xx_hal_uart_ex.o
    0x080039fa   0x080039fa   0x0000005e   Code   RO         4267    i.HAL_UARTEx_SetRxFifoThreshold  stm32g4xx_hal_uart_ex.o
    0x08003a58   0x08003a58   0x0000005e   Code   RO         4268    i.HAL_UARTEx_SetTxFifoThreshold  stm32g4xx_hal_uart_ex.o
    0x08003ab6   0x08003ab6   0x00000002   Code   RO         4270    i.HAL_UARTEx_TxFifoEmptyCallback  stm32g4xx_hal_uart_ex.o
    0x08003ab8   0x08003ab8   0x00000002   Code   RO         4271    i.HAL_UARTEx_WakeupCallback  stm32g4xx_hal_uart_ex.o
    0x08003aba   0x08003aba   0x00000002   Code   RO         3859    i.HAL_UART_ErrorCallback  stm32g4xx_hal_uart.o
    0x08003abc   0x08003abc   0x00000308   Code   RO         3862    i.HAL_UART_IRQHandler  stm32g4xx_hal_uart.o
    0x08003dc4   0x08003dc4   0x00000078   Code   RO         3863    i.HAL_UART_Init     stm32g4xx_hal_uart.o
    0x08003e3c   0x08003e3c   0x00000084   Code   RO          406    i.HAL_UART_MspInit  usart.o
    0x08003ec0   0x08003ec0   0x00000002   Code   RO         3870    i.HAL_UART_RxCpltCallback  stm32g4xx_hal_uart.o
    0x08003ec2   0x08003ec2   0x000000d6   Code   RO         3872    i.HAL_UART_Transmit  stm32g4xx_hal_uart.o
    0x08003f98   0x08003f98   0x00000002   Code   RO         3875    i.HAL_UART_TxCpltCallback  stm32g4xx_hal_uart.o
    0x08003f9a   0x08003f9a   0x00000002   PAD
    0x08003f9c   0x08003f9c   0x00000038   Code   RO         4490    i.Hall_init         dc_motor_hall.o
    0x08003fd4   0x08003fd4   0x00000070   Code   RO         4491    i.InterruptsProcess  dc_motor_hall.o
    0x08004044   0x08004044   0x00000010   Code   RO          656    i.LL_ADC_Enable     stm32g4xx_hal_adc.o
    0x08004054   0x08004054   0x0000000a   Code   RO          657    i.LL_ADC_GetMultimode  stm32g4xx_hal_adc.o
    0x0800405e   0x0800405e   0x00000012   Code   RO          658    i.LL_ADC_GetOffsetChannel  stm32g4xx_hal_adc.o
    0x08004070   0x08004070   0x00000012   Code   RO          929    i.LL_ADC_GetOffsetChannel  stm32g4xx_hal_adc_ex.o
    0x08004082   0x08004082   0x0000000a   Code   RO          930    i.LL_ADC_INJ_GetTrigAuto  stm32g4xx_hal_adc_ex.o
    0x0800408c   0x0800408c   0x0000000a   Code   RO          659    i.LL_ADC_INJ_IsConversionOngoing  stm32g4xx_hal_adc.o
    0x08004096   0x08004096   0x0000000a   Code   RO          931    i.LL_ADC_INJ_IsConversionOngoing  stm32g4xx_hal_adc_ex.o
    0x080040a0   0x080040a0   0x00000014   Code   RO          932    i.LL_ADC_INJ_StartConversion  stm32g4xx_hal_adc_ex.o
    0x080040b4   0x080040b4   0x0000000a   Code   RO          660    i.LL_ADC_IsDisableOngoing  stm32g4xx_hal_adc.o
    0x080040be   0x080040be   0x0000000a   Code   RO          661    i.LL_ADC_IsEnabled  stm32g4xx_hal_adc.o
    0x080040c8   0x080040c8   0x0000000a   Code   RO          933    i.LL_ADC_IsEnabled  stm32g4xx_hal_adc_ex.o
    0x080040d2   0x080040d2   0x0000000a   Code   RO          662    i.LL_ADC_IsInternalRegulatorEnabled  stm32g4xx_hal_adc.o
    0x080040dc   0x080040dc   0x0000000a   Code   RO          663    i.LL_ADC_REG_IsConversionOngoing  stm32g4xx_hal_adc.o
    0x080040e6   0x080040e6   0x0000000a   Code   RO          934    i.LL_ADC_REG_IsConversionOngoing  stm32g4xx_hal_adc_ex.o
    0x080040f0   0x080040f0   0x00000012   Code   RO          664    i.LL_ADC_REG_IsTriggerSourceSWStart  stm32g4xx_hal_adc.o
    0x08004102   0x08004102   0x00000028   Code   RO          667    i.LL_ADC_SetChannelSamplingTime  stm32g4xx_hal_adc.o
    0x0800412a   0x0800412a   0x00000028   Code   RO          935    i.LL_ADC_SetChannelSamplingTime  stm32g4xx_hal_adc_ex.o
    0x08004152   0x08004152   0x0000000c   Code   RO          668    i.LL_ADC_SetCommonPathInternalCh  stm32g4xx_hal_adc.o
    0x0800415e   0x0800415e   0x0000000c   Code   RO          936    i.LL_ADC_SetCommonPathInternalCh  stm32g4xx_hal_adc_ex.o
    0x0800416a   0x0800416a   0x00000016   Code   RO          669    i.LL_ADC_SetOffsetState  stm32g4xx_hal_adc.o
    0x08004180   0x08004180   0x00000016   Code   RO          937    i.LL_ADC_SetOffsetState  stm32g4xx_hal_adc_ex.o
    0x08004196   0x08004196   0x0000000c   Code   RO          670    i.LL_ADC_SetSamplingTimeCommonConfig  stm32g4xx_hal_adc.o
    0x080041a2   0x080041a2   0x0000000c   Code   RO          938    i.LL_ADC_SetSamplingTimeCommonConfig  stm32g4xx_hal_adc_ex.o
    0x080041ae   0x080041ae   0x00000002   PAD
    0x080041b0   0x080041b0   0x000000d0   Code   RO          317    i.MX_ADC2_Init      adc.o
    0x08004280   0x08004280   0x00000134   Code   RO          286    i.MX_GPIO_Init      gpio.o
    0x080043b4   0x080043b4   0x000000e8   Code   RO          360    i.MX_TIM1_Init      tim.o
    0x0800449c   0x0800449c   0x0000006c   Code   RO          407    i.MX_USART2_UART_Init  usart.o
    0x08004508   0x08004508   0x000000cc   Code   RO           19    i.PositionDetection  curtain.o
    0x080045d4   0x080045d4   0x00000068   Code   RO         1387    i.RCC_GetSysClockFreqFromPLLSource  stm32g4xx_hal_rcc.o
    0x0800463c   0x0800463c   0x00000034   Code   RO         4552    i.Security_init     dc_motor_security.o
    0x08004670   0x08004670   0x00000058   Code   RO         4553    i.StallCheck_loop   dc_motor_security.o
    0x080046c8   0x080046c8   0x000000e8   Code   RO           20    i.Standby_loop      curtain.o
    0x080047b0   0x080047b0   0x00000018   Code   RO          537    i.StartUart         bsp_usart.o
    0x080047c8   0x080047c8   0x00000008   Code   RO          450    i.SysTick_Handler   stm32g4xx_it.o
    0x080047d0   0x080047d0   0x000000a0   Code   RO          232    i.SystemClock_Config  main.o
    0x08004870   0x08004870   0x00000014   Code   RO         4377    i.SystemInit        system_stm32g4xx.o
    0x08004884   0x08004884   0x00000010   Code   RO          451    i.TIM1_BRK_TIM15_IRQHandler  stm32g4xx_it.o
    0x08004894   0x08004894   0x00000010   Code   RO          452    i.TIM1_UP_TIM16_IRQHandler  stm32g4xx_it.o
    0x080048a4   0x080048a4   0x000000bc   Code   RO         2773    i.TIM_Base_SetConfig  stm32g4xx_hal_tim.o
    0x08004960   0x08004960   0x00000022   Code   RO         2774    i.TIM_CCxChannelCmd  stm32g4xx_hal_tim.o
    0x08004982   0x08004982   0x00000016   Code   RO         2784    i.TIM_ETR_SetConfig  stm32g4xx_hal_tim.o
    0x08004998   0x08004998   0x00000018   Code   RO         2785    i.TIM_ITRx_SetConfig  stm32g4xx_hal_tim.o
    0x080049b0   0x080049b0   0x000000ac   Code   RO         2786    i.TIM_OC1_SetConfig  stm32g4xx_hal_tim.o
    0x08004a5c   0x08004a5c   0x000000b4   Code   RO         2787    i.TIM_OC2_SetConfig  stm32g4xx_hal_tim.o
    0x08004b10   0x08004b10   0x000000b4   Code   RO         2788    i.TIM_OC3_SetConfig  stm32g4xx_hal_tim.o
    0x08004bc4   0x08004bc4   0x000000b4   Code   RO         2789    i.TIM_OC4_SetConfig  stm32g4xx_hal_tim.o
    0x08004c78   0x08004c78   0x00000070   Code   RO         2790    i.TIM_OC5_SetConfig  stm32g4xx_hal_tim.o
    0x08004ce8   0x08004ce8   0x00000070   Code   RO         2791    i.TIM_OC6_SetConfig  stm32g4xx_hal_tim.o
    0x08004d58   0x08004d58   0x00000026   Code   RO         2793    i.TIM_TI1_ConfigInputStage  stm32g4xx_hal_tim.o
    0x08004d7e   0x08004d7e   0x00000028   Code   RO         2795    i.TIM_TI2_ConfigInputStage  stm32g4xx_hal_tim.o
    0x08004da6   0x08004da6   0x00000002   PAD
    0x08004da8   0x08004da8   0x00000058   Code   RO         4272    i.UARTEx_SetNbDataToProcess  stm32g4xx_hal_uart_ex.o
    0x08004e00   0x08004e00   0x000000f8   Code   RO         3877    i.UART_AdvFeatureConfig  stm32g4xx_hal_uart.o
    0x08004ef8   0x08004ef8   0x00000076   Code   RO         3878    i.UART_CheckIdleState  stm32g4xx_hal_uart.o
    0x08004f6e   0x08004f6e   0x00000018   Code   RO         3879    i.UART_DMAAbortOnError  stm32g4xx_hal_uart.o
    0x08004f86   0x08004f86   0x00000002   PAD
    0x08004f88   0x08004f88   0x0000003c   Code   RO         3889    i.UART_EndRxTransfer  stm32g4xx_hal_uart.o
    0x08004fc4   0x08004fc4   0x00000022   Code   RO         3890    i.UART_EndTransmit_IT  stm32g4xx_hal_uart.o
    0x08004fe6   0x08004fe6   0x00000092   Code   RO         3892    i.UART_RxISR_16BIT  stm32g4xx_hal_uart.o
    0x08005078   0x08005078   0x00000164   Code   RO         3893    i.UART_RxISR_16BIT_FIFOEN  stm32g4xx_hal_uart.o
    0x080051dc   0x080051dc   0x0000008e   Code   RO         3894    i.UART_RxISR_8BIT   stm32g4xx_hal_uart.o
    0x0800526a   0x0800526a   0x00000002   PAD
    0x0800526c   0x0800526c   0x00000164   Code   RO         3895    i.UART_RxISR_8BIT_FIFOEN  stm32g4xx_hal_uart.o
    0x080053d0   0x080053d0   0x0000038c   Code   RO         3896    i.UART_SetConfig    stm32g4xx_hal_uart.o
    0x0800575c   0x0800575c   0x00000110   Code   RO         3898    i.UART_Start_Receive_IT  stm32g4xx_hal_uart.o
    0x0800586c   0x0800586c   0x000000be   Code   RO         3903    i.UART_WaitOnFlagUntilTimeout  stm32g4xx_hal_uart.o
    0x0800592a   0x0800592a   0x00000002   PAD
    0x0800592c   0x0800592c   0x00000010   Code   RO          453    i.USART2_IRQHandler  stm32g4xx_it.o
    0x0800593c   0x0800593c   0x00000020   Code   RO         4695    i.__0printf$1       mc_w.l(printf1.o)
    0x0800595c   0x0800595c   0x00000010   Code   RO         2556    i.__NVIC_GetPriorityGrouping  stm32g4xx_hal_cortex.o
    0x0800596c   0x0800596c   0x00000028   Code   RO         2557    i.__NVIC_SetPriority  stm32g4xx_hal_cortex.o
    0x08005994   0x08005994   0x0000000e   Code   RO         4951    i.__scatterload_copy  mc_w.l(handlers.o)
    0x080059a2   0x080059a2   0x00000002   Code   RO         4952    i.__scatterload_null  mc_w.l(handlers.o)
    0x080059a4   0x080059a4   0x0000000e   Code   RO         4953    i.__scatterload_zeroinit  mc_w.l(handlers.o)
    0x080059b2   0x080059b2   0x00000002   PAD
    0x080059b4   0x080059b4   0x00000154   Code   RO         4702    i._printf_core      mc_w.l(printf1.o)
    0x08005b08   0x08005b08   0x00000034   Code   RO         4602    i.anycheck          dc_motor_stall_lib.o
    0x08005b3c   0x08005b3c   0x00000124   Code   RO          538    i.at_rec_process    bsp_usart.o
    0x08005c60   0x08005c60   0x00000030   Code   RO         4413    i.dcmotor_init      dc_motor.o
    0x08005c90   0x08005c90   0x0000000c   Code   RO          596    i.duya_Curtain_Position_set  curtain_duya.o
    0x08005c9c   0x08005c9c   0x00000056   Code   RO          597    i.duya_curtain_mode_set  curtain_duya.o
    0x08005cf2   0x08005cf2   0x00000002   Code   RO           21    i.error_loop        curtain.o
    0x08005cf4   0x08005cf4   0x0000001c   Code   RO          539    i.fputc             bsp_usart.o
    0x08005d10   0x08005d10   0x0000008c   Code   RO         4492    i.getDirection      dc_motor_hall.o
    0x08005d9c   0x08005d9c   0x00000028   Code   RO         4493    i.get_hall_state    dc_motor_hall.o
    0x08005dc4   0x08005dc4   0x00000040   Code   RO          233    i.main              main.o
    0x08005e04   0x08005e04   0x00000098   Code   RO         4603    i.maxCheck          dc_motor_stall_lib.o
    0x08005e9c   0x08005e9c   0x00000030   Code   RO         4494    i.micros            dc_motor_hall.o
    0x08005ecc   0x08005ecc   0x0000009c   Code   RO         4604    i.minCheck          dc_motor_stall_lib.o
    0x08005f68   0x08005f68   0x00000170   Code   RO           22    i.position_loop     curtain.o
    0x080060d8   0x080060d8   0x00000018   Data   RO         3904    .constdata          stm32g4xx_hal_uart.o
    0x080060f0   0x080060f0   0x00000010   Data   RO         4274    .constdata          stm32g4xx_hal_uart_ex.o
    0x08006100   0x08006100   0x00000018   Data   RO         4378    .constdata          system_stm32g4xx.o
    0x08006118   0x08006118   0x00000020   Data   RO         4949    Region$$Table       anon$$obj.o


    Execution Region RW_IRAM1 (Exec base: 0x20000000, Load base: 0x08006138, Size: 0x000006d0, Max: 0x00008000, ABSOLUTE)

    Exec Addr    Load Addr    Size         Type   Attr      Idx    E Section Name        Object

    0x20000000   0x08006138   0x00000010   Data   RW          541    .data               bsp_usart.o
    0x20000010   0x08006148   0x0000000c   Data   RW         1173    .data               stm32g4xx_hal.o
    0x2000001c   0x08006154   0x00000004   Data   RW         4379    .data               system_stm32g4xx.o
    0x20000020   0x08006158   0x00000004   Data   RW         4925    .data               mc_w.l(stdout.o)
    0x20000024        -       0x0000000c   Zero   RW           23    .bss                curtain.o
    0x20000030        -       0x0000006c   Zero   RW          318    .bss                adc.o
    0x2000009c        -       0x0000004c   Zero   RW          361    .bss                tim.o
    0x200000e8        -       0x00000090   Zero   RW          408    .bss                usart.o
    0x20000178        -       0x00000104   Zero   RW          540    .bss                bsp_usart.o
    0x2000027c        -       0x0000000c   Zero   RW         4415    .bss                dc_motor.o
    0x20000288        -       0x00000018   Zero   RW         4451    .bss                dc_motor_driver.o
    0x200002a0        -       0x00000018   Zero   RW         4495    .bss                dc_motor_hall.o
    0x200002b8        -       0x00000018   Zero   RW         4554    .bss                dc_motor_security.o
    0x200002d0        -       0x00000400   Zero   RW            1    STACK               startup_stm32g431xx.o


==============================================================================

Image component sizes


      Code (inc. data)   RO Data    RW Data    ZI Data      Debug   Object Name

       320         24          0          0        108       1829   adc.o
       524        134          0         16        260       4203   bsp_usart.o
      1658        268          0          0         12     680122   curtain.o
        98          0          0          0          0       1144   curtain_duya.o
        48         18          0          0         12       1201   dc_motor.o
       252         22          0          0         24       1766   dc_motor_driver.o
       404         40          0          0         24       4661   dc_motor_hall.o
       296         46          0          0         24       3849   dc_motor_security.o
       360         76          0          0          0       1905   dc_motor_stall_lib.o
       368         42          0          0          0       1596   gpio.o
       228         16          0          0          0       2068   main.o
        36          8        472          0       1024        840   startup_stm32g431xx.o
       194         32          0         12          0       4349   stm32g4xx_hal.o
      2978        112          0          0          0      81447   stm32g4xx_hal_adc.o
      2162         72          0          0          0      76442   stm32g4xx_hal_adc_ex.o
       310         22          0          0          0      34371   stm32g4xx_hal_cortex.o
       266          0          0          0          0       1779   stm32g4xx_hal_dma.o
       526         38          0          0          0       3590   stm32g4xx_hal_gpio.o
        68          6          0          0          0        834   stm32g4xx_hal_msp.o
       300         18          0          0          0       1417   stm32g4xx_hal_pwr_ex.o
      2292        114          0          0          0       7524   stm32g4xx_hal_rcc.o
       880          8          0          0          0       1880   stm32g4xx_hal_rcc_ex.o
      3314        256          0          0          0      18807   stm32g4xx_hal_tim.o
       430         34          0          0          0       6444   stm32g4xx_hal_tim_ex.o
      3970        114         24          0          0      34681   stm32g4xx_hal_uart.o
       462         10         16          0          0       6332   stm32g4xx_hal_uart_ex.o
        88         18          0          0          0       3454   stm32g4xx_it.o
        20          6         24          4          0       1119   system_stm32g4xx.o
       404         26          0          0         76       2468   tim.o
       240         18          0          0        144       1710   usart.o

    ----------------------------------------------------------------------
     23524       1598        568         32       1708     993832   Object Totals
         0          0         32          0          0          0   (incl. Generated)
        28          0          0          0          0          0   (incl. Padding)

    ----------------------------------------------------------------------

      Code (inc. data)   RO Data    RW Data    ZI Data      Debug   Library Member Name

         0          0          0          0          0          0   entry.o
         0          0          0          0          0          0   entry10a.o
         0          0          0          0          0          0   entry11a.o
         8          4          0          0          0          0   entry2.o
         4          0          0          0          0          0   entry5.o
         0          0          0          0          0          0   entry7b.o
         0          0          0          0          0          0   entry8b.o
         8          4          0          0          0          0   entry9a.o
        30          0          0          0          0          0   handlers.o
        36          8          0          0          0         68   init.o
        30          0          0          0          0         68   llshl.o
        32          0          0          0          0         68   llushr.o
        36          0          0          0          0         68   memcpya.o
        36          0          0          0          0        108   memseta.o
       372         14          0          0          0        184   printf1.o
         0          0          0          4          0          0   stdout.o
        28          0          0          0          0         76   strcmp.o
        30          0          0          0          0         80   strncmp.o
        44          0          0          0          0         80   uidiv.o
        98          0          0          0          0         92   uldiv.o

    ----------------------------------------------------------------------
       796         30          0          4          0        892   Library Totals
         4          0          0          0          0          0   (incl. Padding)

    ----------------------------------------------------------------------

      Code (inc. data)   RO Data    RW Data    ZI Data      Debug   Library Name

       792         30          0          4          0        892   mc_w.l

    ----------------------------------------------------------------------
       796         30          0          4          0        892   Library Totals

    ----------------------------------------------------------------------

==============================================================================


      Code (inc. data)   RO Data    RW Data    ZI Data      Debug   

     24320       1628        568         36       1708     977612   Grand Totals
     24320       1628        568         36       1708     977612   ELF Image Totals
     24320       1628        568         36          0          0   ROM Totals

==============================================================================

    Total RO  Size (Code + RO Data)                24888 (  24.30kB)
    Total RW  Size (RW Data + ZI Data)              1744 (   1.70kB)
    Total ROM Size (Code + RO Data + RW Data)      24924 (  24.34kB)

==============================================================================

